:020000040800F2
:10000000F80C00209D010008412400086F21000821
:10001000E12300081D080008512D00080000000021
:1000200000000000000000000000000005010008C2
:10003000570800080000000049010008A92700082F
:10004000B7010008B7010008B7010008B7010008B0
:10005000B7010008B7010008B7010008B7010008A0
:10006000B7010008B7010008B7010008B701000890
:10007000B7010008B7010008B7010008B701000880
:1000800021080008B7010008B7010008B7010008FF
:10009000B7010008B7010008B7010008B701000860
:1000A000B7010008B7010008B7010008B701000850
:1000B00051280008B7010008B7010008B70100087F
:1000C000B7010008B7010008B7010008B701000830
:1000D000B7010008ED2C0008F92C0008B701000852
:1000E000B7010008B7010008B7010008DFF810D019
:1000F00000F018FB004800472D370008AFF30080E0
:10010000F80C0020224B19680868B0E8F00F80F363
:100110000988BFF36F8F4FF0000080F311884EF015
:100120000D0E70470000000006480068006880F36C
:10013000088862B661B6BFF34F8FBFF36F8F00DFE1
:1001400000BF00BF08ED00E0EFF30980BFF36F8F41
:100150000F4B1A6820E9F00F106008B54FF05000FF
:1001600080F31188BFF34F8FBFF36F8F03F07CFBD9
:100170004FF0000080F31188BDE808401968086856
:10018000B0E8F00F80F30988BFF36F8F704700BFAE
:1001900018000020EFF305807047000006488047F4
:1001A00006480047FEE7FEE7FEE7FEE7FEE7FEE75C
:1001B000FEE7FEE7FEE7FEE74D280008ED00000839
:1001C0002DE9F05F0546002092469B46884606468C
:1001D000814640241BE0284641464746224600F01F
:1001E00020F853465A46C01A914110D3114618467A
:1001F000224600F001FA2D1A67EB01084F4622460D
:100200000120002100F0F8F917EB00094E41201EF3
:10021000A4F10104DFDC484631462A464346BDE8E6
:10022000F09F202A04DB203A21FA02F000217047D7
:1002300021FA02F3D040C2F120029140084319464E
:10024000704740EA01039B0703D009E008C9121F69
:1002500008C0042AFAD203E011F8013B00F8013B80
:10026000521EF9D27047D2B201E000F8012B491EAC
:10027000FBD270470022F6E710B513460A46044643
:100280001946FFF7F0FF204610BD2DE9FE4F8046CE
:1002900081EA0300C00F0C46009021F0004123F0DA
:1002A0000045B8EB0200A94105D2404621469046E0
:1002B0001C460B46024623F00040104347D0270D52
:1002C000C7F30A00C3F30A510290401A0190402874
:1002D0006BDAC3F3130040F4801B0098924620B100
:1002E0000023D2EB030A63EB0B0B01985946C0F1D4
:1002F0004002504600F080F906460D4650465946E9
:10030000019A00F088F910EB08006141002487EAA7
:10031000115284EAE7731A4340D0009A62B3019AFB
:10032000012A4FEA075215DC001B61EB02014FF076
:10033000004202EA0752CDE90042001C41F580115B
:1003400032462B4600F088F903B0BDE8F08F4046F6
:100350002146F9E7001B61EB0201001C41F5801307
:1003600000185B412018A2F5001747EB030140EA93
:10037000D570B6196D4111E06D084FEA360645EAB1
:10038000C0754FEA0752001B61EB0201001C41F5EA
:10039000801149084FEA30000019514132462B467E
:1003A00003B0BDE8F04F00F048B9009801224000CA
:1003B0000023D0EB020263EBE073009821464FEA82
:1003C000E074B8EB000061EB0401E9E783F000435F
:1003D0005BE781F0004158E72DE9FE4F81EA030415
:1003E00004F0004421F0004100944FF0000B23F092
:1003F000004350EA01045ED052EA03045BD0C3F329
:100400000A54C1F30A552C44A4F2F3340194A0FB1E
:100410000254C1F3130141F48011C3F3130343F4F5
:10042000801301FB024400FB034E840A970A44EA4E
:10043000815447EA8357A4FB076802958D0A05FBA0
:1004400007854FEA932C04FB0C542705029D4FEAC5
:10045000065847EA1637B5EB08056EEB070C870E12
:10046000920E47EA811742EA8312A7FB0201B6EB1C
:100470000B0164EB00042B0D43EA0C335E1844EBD4
:100480001C50DA465146E7FB0201C5F313044FEA5C
:100490000B3343EA14534FEA0432019C43EA060348
:1004A000A4F10C040294009CCDE900B400F0D4F84F
:1004B00003B0BDE8F08F00200146F9E72DE9F04DCB
:1004C00081EA030404F0004B21F0004514464FF08C
:1004D000000A23F0004150EA050220D054EA01024C
:1004E0001DD0C5F30A570246C5F31303C1F3130029
:1004F000C1F30A5640F4801543F48013A7EB0608B5
:10050000101BD64608F2FD3873EB050002D308F144
:10051000010801E092185B41B8F1000F03DA0020F6
:100520000146BDE8F08D00204FF480110646844658
:100530000EE0171B73EB050705D3121B63EB0503D6
:1005400006434CEA010C49084FEA300092185B411F
:1005500050EA0107EDD152EA030012D082EA04000A
:1005600083EA0501084305D0101BAB4106D20122E6
:10057000002306E000224FF0004302E06FF001028A
:1005800053101AEB06004CEB085110EB0A0041EB3C
:100590000B01BDE8F04D00F050B8000030B5041E6E
:1005A00071F1000404DB4FF00044404264EB0101B0
:1005B000141E73F1000405DB1C464FF00043524249
:1005C00063EB0403994208BF904230BD30B50B463F
:1005D000014600202022012409E021FA02F59D4273
:1005E00005D303FA02F5491B04FA02F52844151E47
:1005F000A2F10102F1DC30BD202A04DB203A00FA2E
:1006000002F1002070479140C2F1200320FA03F369
:10061000194390407047202A06DBCB17203A41FA55
:1006200002F043EAE07306E041FA02F3D040C2F17F
:100630002002914008431946704710B5141E73F10B
:10064000000408DA401C41F1000192185B411A4392
:1006500001D120F0010010BD2DE9F04D92469B46DE
:1006600011B1B1FA81F202E0B0FA80F22032904684
:10067000FFF7C2FF04460F4640EA0A0041EA0B01B9
:1006800053465A46084313D0114653EA010019D085
:10069000C8F140025046FFF7C4FD05460E465046DD
:1006A00059464246FFF7A8FF084305D0012004E061
:1006B00020463946BDE8F08D0020054346EAE07645
:1006C0002C4337430A986305E40AA0EB0800002294
:1006D000FD0A44EA47540A3002D500200146E9E702
:1006E000010510196941DDE9084500196941BDE8B6
:1006F000F04DA2E7C1F30A52C1F3130140F2FF33F8
:1007000041F480119A4202DA00200146704740F21B
:1007100033439A42A2F2334202DC5242FFF781BDD8
:10072000FFF76ABF064C074D06E0E06840F00103A2
:1007300094E8070098471034AC42F6D3FFF7DAFC90
:10074000D0390008F039000870B5044600688168A7
:10075000C943C90717D1816821F00101816000F008
:10076000CBFC05460AE000BF00F0C6FC401B022897
:1007700004D920688068C043C00706D0206880681C
:10078000C043C007F0D0002070BDA06A40F0100048
:10079000A062E06A40F00100E062012070BD00004C
:1007A000F8B500260446009600688168C943C90769
:1007B0002DD0816841F0010181601648164900681A
:1007C000B0FBF1F000E0401E00900028FBD100F0EB
:1007D00093FC054616E000BF00F08EFC401B02288B
:1007E00010D920688068C043C0070BD0A06A40F0D1
:1007F0001000A062E06A40F00100E06284F824602A
:100800000120F8BD20688068C043C007E4D1002003
:10081000F8BD00001400002040420F00FEE7000079
:10082000014800F05FBA0000A403002030B590F842
:1008300040500124AC40C56B6C6004686360436841
:10084000102B036803D099600068C26030BD9A60C5
:100850000068C16030BD704700EBC000C1004FF0C0
:10086000E020416100218161052101610169C90325
:10087000FCD504210161704708B501220B490C48E1
:1008800001F0ACFB0A4848300168CA6842F0100227
:10089000CA6000680168406800900649BDE80840E9
:1008A000642201F5D77001F08BBB00000500002029
:1008B00014030020AE01002072B6FEE7F8B5002553
:1008C0000446009590F8240001280BD0012084F8FC
:1008D00024002046FFF738FF2046FFF761FF06009F
:1008E00002D050E00220F8BDA06A20F4885040F009
:1008F0000200A062022000F0CFFC25490968B1FB8C
:10090000F0F0400000E0401E00900028FBD120687D
:10091000816841F00801816000F0EEFB074608E0C5
:1009200000F0EAFBC01B0A2803D920688068000792
:1009300015D4206880680007F2D42068816841F0EF
:100940000401816000F0D8FB074612E000F0D4FB00
:10095000C01B0A280DD920688068400709D5A06A05
:1009600020F0020040F01000A06284F82450012022
:10097000F8BD206880684007E8D4A06A20F0020033
:1009800040F00100A06284F824503046F8BD000019
:1009900014000020F8B50024009490F82420254687
:1009A000012A12D0012280F824204A681F23072A36
:1009B0000DD20668776B521E02EB820293409F4372
:1009C0000B6893401F43776319E00220F8BD066867
:1009D0000D2A0AD2376BD21F02EB820293409F434B
:1009E0000B6893401F43376309E0F76A0D3A02EB47
:1009F000820293409F430B6893401F43F7620A684B
:100A0000072306680A2A0AD3F7680A3A02EB420269
:100A100093409F438B6893401F43F76008E037691A
:100A200002EB420293409F438B6893401F43376120
:100A30000A68102A01D0112A20D1124B02689A426A
:100A400017D193681B0219D4936843F40003936091
:100A50000968102912D10C490C4A0968B1FBF2F15E
:100A600001EB8101490000E0491E00910029FBD102
:100A700004E0816A41F020018162012480F8245061
:100A80002046F8BD002401401400002040420F0021
:100A90002DE9F0414FF0000704003D467ED0A06AEA
:100AA000002628B9E66284F82460204600F07EF82B
:100AB0002046FFF749FEA16AC90600D420B1A06A0A
:100AC00040F01000A06269E0A16A21F4885141F071
:100AD0000201A1626268E169237B0A4347EA43019C
:100AE0000A43A1684FF48077B94209D0012907D0A1
:100AF0005FF0000194F814C0BCF1010F02D00AE0CD
:100B00003946F7E7F3B1A36A43F02003A362E36A2F
:100B100043F00103E3622368D3F804C02CF4694C6A
:100B20004CEA010CC3F804C021688B68DFF870C080
:100B300003EA0C0313438B60A168B9420BD001296F
:100B400009D00CE0DFF85CC0A3690CEB43330B4326
:100B500043F40061DFE7218A0D05A5F580152168C2
:100B6000CB6A23F470032B43CB62216889680E4B58
:100B70001940914208D1E662A16A21F0020141F0D8
:100B80000101A162BDE8F081A06A20F0020040F0FE
:100B90001000A062E06A40F00100E0620120F1E78D
:100BA000FDF7E1FF00E0FFFFFE0E1FFF00B585B07F
:100BB0000021009101910291039100680E49884241
:100BC00018D10E48816941F400718161816901F495
:100BD00000710491816941F0040181618069694675
:100BE00000F00400049013200090032001900448BA
:100BF00000F088F905B000BD00240140001002405B
:100C00000008014010B590F821100022022905D0FB
:100C10000421816380F82020012010BD01680B6849
:100C200023F00E030B6001680B6823F001030B60D7
:100C300090F84030C46B012101FA03F3636080F83F
:100C4000211080F82020104610BD000010B590F84B
:100C500021100024022903D00421816301243DE0F6
:100C600001680A6822F00E020A6001680A6822F030
:100C700001020A601A4A0168914201D1012121E072
:100C8000174A1432914201D110211BE0144A283234
:100C9000914201D1891515E0114A3C32914201D1AE
:100CA00089140FE00E4A5032914202D14FF4803144
:100CB00008E00B4A6432914202D14FF4801101E006
:100CC0004FF08071064A083A5160012180F82110E6
:100CD000002180F82010416B01B18847204610BDEB
:100CE000080002402DE9F05FC16B0C6801680B68D9
:100CF000D0F840C0042202FA0CF2494DDFF824A1DA
:100D0000494E4A4FDFF828B1DFF828E122422CD0C3
:100D10005A072AD50A68920603D40A6822F0040208
:100D20000A600168A94201D1042219E0514501D1AC
:100D3000402215E0B14202D14FF4806210E0B94286
:100D400002D14FF480420BE0594502D14FF480228A
:100D500006E0714502D14FF4800201E04FF080625D
:100D60002F4908394A60C16A3BE04FF0020808FA8F
:100D70000CF818EA040F4FF000094FF0010235D0CB
:100D80005FEA837832D50B689B0605D40B6823F0A5
:100D90000A030B6080F821200168A94201D10222D8
:100DA00019E0514501D1202215E0B14202D14FF4A2
:100DB000007210E0B94202D14FF400520BE05945E5
:100DC00002D14FF4003206E0714502D14FF4001217
:100DD00001E04FF00072124908394A6080F8209013
:100DE000816A00291AD0BDE8F05F0847082505FA96
:100DF0000CF5254212D01B0710D50B6823F00E030B
:100E00000B6090F84010C36B02FA01F159608263E5
:100E100080F8212080F82090016BE2E7BDE8F09F88
:100E2000080002401C000240300002404400024022
:100E3000580002406C00024030B528B308C813497E
:100E400014221944B1FBF2F18900C1631049816396
:100E5000022141771A6843F6F0718A43D0E9001401
:100E60002143D0E902452C432143046921434469CD
:100E70002143846921431143196000214163012208
:100E800042770177084630BD012030BDF8FFFDBF35
:100E90000000024070B5044690F8200000250128AB
:100EA0000CD0012084F8200094F821600020012E4D
:100EB00006D084F820000225284670BD022070BDAF
:100EC000022684F82160A0632068066826F00106E7
:100ED00006602046FFF7AAFCE06A00282068016847
:100EE00002D041F00E0106E021F00401016020680B
:100EF000016841F00A0101602068016841F00101C8
:100F00000160D9E72DE9F84FDFF8B8910024A9F185
:100F1000040B23460F2709F1040AABF1040EC9E0C4
:100F20000125A5402A40AA427DD1674ED1F804C0D0
:100F3000ACEB0608B44532D014DCBCF1030F3AD058
:100F400009DCBCF1000F2AD0BCF1010F1CD0BCF1B0
:100F5000020F31D11DE0BCF1110F17D0BCF1120FFF
:100F60002AD119E0B8F5881F19D006DCB8F5803F02
:100F700015D0B8F5801F1FD111E0B8F5001F0ED0B5
:100F8000B8F5041F18D10AE0CB6815E0CB681B1D2B
:100F900012E0CB6808330FE0CB680C330CE08B68B1
:100FA0002BB1012B4FF0080303D0456104E004236B
:100FB00002E0056100E00023FF2A01D8064601E0B7
:100FC00000F104064FEA840501D9A5F12005D6F801
:100FD000008007FA05FC28EA0C0803FA05F548EA40
:100FE0000508C6F800804D68ED0062D5374DAE6942
:100FF00046F00106AE61AD6924F0030605F0010577
:101000000095334D06EB050CDCF80850A607360FAB
:1010100007FA06F825EA0805DFF8B880404503D14D
:101020004FF0000817E044E0DFF8AC80404502D103
:101030004FF001080FE0DFF8A480404502D14FF0E7
:10104000020808E0DFF89880404502D14FF003081D
:1010500001E04FF0040808FA06F848EA0508CCF861
:1010600008804D68D9F80060ED024D4601D5164361
:1010700000E096432E604D68DAF80060AD025546F8
:1010800001D5164300E096432E604D68DBF8006002
:10109000AD035D4601D5164300E096432E604D68D2
:1010A000DEF80060ED03754601D5164300E0964377
:1010B0002E60641C0D682A46E5407FF431AFBDE820
:1010C000F88F0000080401400000111000100240D9
:1010D0000000014000080140000C014000100140E8
:1010E000001401408068084000D0012070470AB118
:1010F000016170470904FBE7014880687047000000
:10110000080000200248816802781144816070471D
:1011100008000020074810B5016841F01001016087
:10112000032000F0A7F80F2000F006F800F050F8B8
:10113000002010BD0020024030B50546204887B091
:10114000C16941F00101C161C06906A900F0010057
:10115000009001A800F0FEF90498B8B100F01AFA66
:10116000400018494FF08042B0FBF1F11648491E8B
:101170000260416040F2E7320021C0E90321816052
:10118000816100F0DFFB040003D015E000F002FAFB
:10119000E7E70D4800F004FC04000DD11C2000F02E
:1011A0003BF8102D07D2002229461C2000F042F8FF
:1011B0000648056000E0012407B0204630BD00006D
:1011C0000010024040420F00E80300200C00002005
:1011D0000F4808B5816941F001018161816901F021
:1011E00001010091C16941F08051C161C0690022D3
:1011F00000F0805000900F21901E00F01BF8054871
:10120000416821F0E06141F00071416008BD0000DB
:101210000010024000000140002809DB00F01F021E
:10122000012191404009800000F1E020C0F8001148
:1012300070470000F0B40E4B1B680C46C3F302234A
:10124000C3F10705042D00D90425191D072901D272
:10125000002300E0DB1E012606FA05F1491E2140AD
:1012600099409E40761E16403143F0BC01F0ECBD23
:101270000CED00E0064900F0070208684FF6FF0396
:10128000184040EA0220034A1043086070470000FB
:101290000CED00E00000FA0510B501460020234CDB
:1012A000012922D0022939D010291DD16168226874
:1012B000D20119D51E48C1F38342C903805C0AD507
:1012C00061681B4AC1F34041921E515C194AB2FB4E
:1012D000F1F1484301E0184948436168490203D4E9
:1012E00040000321B0FBF1F010BD226AC2F30121DE
:1012F000012903D1920701D5C80310BD022905D1E8
:10130000626A920702D549F6404010BD0329FCD11C
:1013100021688903F9D54FF2244010BD00F04AF945
:101320006168C1F38131491C4900DBE700100240CC
:10133000A839000800127A0000093D002DE9F843A1
:1013400005460078354CC00754D0E0690026C0003F
:1013500008D4E06940F08050E061E069012600F0C7
:10136000805000902E480168C90512D4016880465B
:1013700041F480710160FFF7BFFE074605E000BF42
:10138000FFF7BAFEC01B642823D8D8F80000C005B8
:10139000F6D5206A10F4407021D0A98801F440717C
:1013A00081421CD0206A1F49012220F440700A604B
:1013B00000220A602062C00711D0FFF79DFE074699
:1013C00041F2883808E000BFFFF796FEC11B414597
:1013D00002D90320BDE8F883206A8007F4D5206A8B
:1013E000696820F44070084320621EB1E06920F073
:1013F0008050E0612878800705D56068A96820F4EE
:101400004040084360602878C00605D56068E968F8
:1014100020F48000084360600020DBE700100240F9
:1014200000700040400442422DE9F0470F4605009D
:1014300061D0434E306800F00700B84209D23068EE
:1014400020F0070038433060306800F00700B842F1
:1014500051D128683B4C810712D5400703D56068FD
:1014600040F4E06060602878000703D5606840F4CD
:10147000605060606068A96820F0F0000843606018
:101480002878C00728D06868012810D02168022871
:1014900010D0890700292EDA616821F00301014389
:1014A0006160FFF729FE804641F288390DE021682E
:1014B0008903EFE78901EDE7FFF71EFEA0EB0801C6
:1014C000494502D90320BDE8F0876068696800F0EB
:1014D0000C00B0EB810FEFD1306800F00700B8428C
:1014E0000BD9306820F0070038433060306800F0D6
:1014F0000700B84201D00120E5E72878400705D56C
:101500006068E96820F4E0600843606028780007BC
:1015100006D56068296920F4605040EAC100606027
:1015200000F058F86168084AC1F30311515CC840E3
:101530000649086006480068FFF7FEFD0020C2E784
:101540000020024000100240B839000814000020BA
:101550000C0000200F2202600C4A536803F00303C2
:101560004360536803F0F0038360536803F4E0635F
:10157000C36052684FF4E06303EAD2020261044898
:10158000006800F00700086070470000001002408B
:10159000002002400448054900684968044AC1F334
:1015A0000221515CC8407047140000200010024026
:1015B000C83900080448054900684968044AC1F36D
:1015C000C221515CC8407047140000200010024046
:1015D000C83900080E4A51680E4801F00C03042B6C
:1015E00011D0082B0FD10C48C1F38343C903C05C51
:1015F0000AD55168084AC1F34041921E515C054A20
:101600005043B0FBF1F07047044948437047000075
:101610000010024000127A009639000800093D00CF
:101620002DE9F84F040070D02078C04DC00749D094
:101630006868C0F38100012807D06868C0F38100A2
:10164000022809D16868C00306D52868800339D507
:1016500060680028E7D035E06068B0F5803F0BD0C7
:1016600010B1B0F5A02F11D0286820F48030286088
:10167000286820F4802002E0286840F48030286048
:10168000606890B1FFF738FD06460AE0286840F42C
:1016900080202860F0E700BFFFF72EFD801B642844
:1016A00073D828688003F7D50CE0FFF725FD0646C0
:1016B00005E000BFFFF720FD801B6428F0D82868F4
:1016C0008003F7D420789A4E80074FF001094FF03D
:1016D000000839D5686810F00C0F07D06868C0F3AF
:1016E0008100022809D16868C00306D428688007F1
:1016F00014D52069012808D110E02069B0B1C6F8DE
:101700000090FFF7F9FC074605E00AE1FFF7F4FC5B
:10171000C01B0228C4D828688007F7D528686169EB
:1017200020F0F80040EAC10028600DE0C6F8008013
:10173000FFF7E2FC074604E0FFF7DEFCC01B0228CF
:1017400023D828688007F7D4207800072CD579485B
:10175000A169D9B1C0F80090FFF7CEFC074604E0BC
:10176000FFF7CAFCC01B02280FD8686A8007F7D5AC
:1017700071484FF4FA510068B0FBF1F0009000BFDF
:101780000098411E0091FAD20EE080E0C0F800807F
:10179000FFF7B2FC074604E0FFF7AEFCC01B0228CF
:1017A00075D8686A8007F7D42078400760D5E86963
:1017B0000027C00008D4E86940F08050E861E8697B
:1017C000012700F0805000905C480168C90513D4DF
:1017D0000168834641F480710160FFF78DFC824609
:1017E00006E000BFFFF788FCA0EB0A0064284ED893
:1017F000DBF80000C005F5D5E06801280AD008B183
:10180000052813D0286A20F001002862286A20F0F9
:10181000040002E0286A40F001002862E06841F21A
:10182000883B98B1FFF768FC82460BE0286A40F0DD
:1018300004002862EEE700BFFFF75EFCA0EB0A01A0
:1018400059455AD8286A8007F6D50CE0FFF754FCB2
:10185000824605E0FFF750FCA0EB0A0159454CD841
:10186000286A8007F6D41FB1E86920F08050E8614B
:10187000E06988B36968C1F38101022944D0022874
:10188000C6F8608004D0FFF737FC044638E034E047
:10189000FFF732FC074604E0FFF72EFCC01B0228CE
:1018A0002BD828688001F7D4206AB0F5803F05D195
:1018B0006868A16820F4003008436860D4E9080132
:1018C0000843696821F4741108436860C6F86090A1
:1018D000FFF712FC044606E025E000BFFFF70CFC12
:1018E000001B022809D828688001F7D51BE000BF3B
:1018F000FFF702FC001B022802D90320BDE8F88F85
:1019000028688001F4D40EE00128F7D06868226AC4
:1019100000F48031914204D1616A00F47010884271
:1019200001D00120EAE70020E8E7000000100240B3
:101930000000424280044242140000200070004037
:101940007047704710B5040003D094F83D0010B103
:1019500007E0012010BD002084F83C00204600F084
:101960001EF8022084F83D00211D206800F076FF5B
:10197000012084F8460084F83E0084F83F0084F893
:10198000400084F8410084F8420084F8430084F861
:10199000440084F8450084F83D00002010BD7047E5
:1019A00090F83D10012901D001207047022180F8F4
:1019B0003D100168CA6842F00102CA6000680B4924
:1019C000884208D0B0F1804F05D00949884202D042
:1019D0000849884204D1816801F00701062903D033
:1019E000016841F00101016000207047002C0140B6
:1019F0000004004000080040704770B504460068CD
:101A000001694FF00005C943890715D4C168C9436E
:101A1000890711D4E91E01610120207720688069BF
:101A20008007204602D0FFF7E7FF04E000F098F8B7
:101A3000204600F096F8257720680169C9434907D8
:101A400017D4C168C943490713D46FF00401016179
:101A5000022020772068806910F4407F204602D061
:101A6000FFF7CAFF04E000F07BF8204600F079F8A9
:101A7000257720680169C943090716D4C168C9439D
:101A8000090712D46FF00801016104202077206853
:101A9000C0698007204602D0FFF7AEFF04E000F0E7
:101AA0005FF8204600F05DF8257720680169C9439A
:101AB000C90617D4C168C943C90613D46FF0100111
:101AC0000161082020772068C06910F4407F20461B
:101AD00002D0FFF791FF04E000F042F8204600F04A
:101AE00040F8257720680169C943C90708D1C16852
:101AF000C943C90704D1891E0161204600F032F8AC
:101B000020680169C943090609D4C168C9430906A7
:101B100005D46FF0800101612046FFF711FF2068B6
:101B20000169C943490609D4C168C943490605D4B6
:101B30006FF040010161204600F01BF82068016948
:101B4000C94389060BD4C168C943890607D46FF01D
:101B5000200101612046BDE87040FFF7F2BE70BD74
:101B6000704770470068B0F1804F01D1FFF7CABAE3
:101B700070477047704710B504460068406994F894
:101B80004110C0F3C010212911D180B12068143058
:101B900050E8001F21F0800140E80012002AF5D132
:101BA000A06B08B1FFF72EF8204600F033FF206845
:101BB000406994F84210C0F38010222911D180B1FD
:101BC0002068143050E8001F21F0400140E8001266
:101BD000002AF5D1E06B08B1FFF714F8204600F0B9
:101BE000F2FE002010BD7047F8B501680446086891
:101BF000CA684B6910F00F0F4FF0000559D003F081
:101C0000010602F49077374365D0C10705D0D105AE
:101C100003D5616C41F001016164410705D5D90725
:101C200003D0616C41F002016164810705D5D907D9
:101C300003D0616C41F004016164010707D502F033
:101C40002001314303D0616C41F008016164616C93
:101C500000293AD0800604D5900602D5204600F02F
:101C6000E7FE20684069616CC0F38010090700D46A
:101C700060B3204600F0A7FE20684069400621D5E9
:101C80002068143050E8001F21F0400140E80012A5
:101C9000002AF5D1E06BA8B16D494163E06BFEF716
:101CA000D5FF002811D0E06B416B01B0BDE8F040DA
:101CB000084783060FD593060DD52046BDE8F840AA
:101CC00000F0B6BE2046FFF78EFFF8BD2046FFF7B6
:101CD0008AFF6564F8BD266B2023012E7CD1C606E1
:101CE0007AD5D60678D508684868009048694FF0DC
:101CF0000206400640D5E16B086840680004000C0D
:101D0000E8D0A28D8242E5D9E085886920282DD0CF
:101D100020680C3050E8001F21F4807140E8001268
:101D2000002AF5D12068143050E8001F21F001018D
:101D300040E80012002AF5D12068143050E8001F56
:101D400021F0400140E80012002AF5D184F8423029
:101D5000256320680C3050E8001F21F0100140E896
:101D60000012002AF5D1E06BFEF74CFF6663A08DF0
:101D7000E18D401A81B22AE0A08DE18D401A81B236
:101D8000E08D0028A6D00029A4D022680C3252E8A9
:101D9000000F20F4907042E80007002FF5D1206872
:101DA000143050E8002F22F0010240E80027002FF5
:101DB000F5D184F84230256320680C3050E8002FBC
:101DC00022F0100240E80023002BF5D16663204684
:101DD000FFF7D0FEF8BDFFE705062BD5150629D580
:101DE00094F841002128F5D1A068B0F5805F01D1B9
:101DF0002069B0B1206A411C2162216800784860E6
:101E0000E08C401E0004000CE084E3D12068C1682F
:101E100021F08001C1602068C16841F04001C160CB
:101E2000D8E7206A0088C0F308004860206A801C58
:101E30002062E5E74006CDD55006CBD5CA682046DE
:101E400022F04002CA6084F8413000F08FF9C1E707
:101E5000C928000870B5040004D094F8410000259A
:101E600010B106E0012070BD84F84050204600F01B
:101E700023F8242084F841002068C16821F400512F
:101E8000C160204600F036FE2068016921F49041CF
:101E900001612068416921F02A0141612068C1681F
:101EA00041F40051C1606564202084F8410084F849
:101EB00042006563002070BDF0B585B00024009439
:101EC0000194029403940646374F0368374902226F
:101ED0000320374DBB4226D18B6943F480438B618D
:101EE0008B6903F4804304938B6943F004038B6193
:101EF0008969039001F0040104911102CDE90012F7
:101F000069462846FEF7FEFF2815CDE9000469461C
:101F100028460294FEF7F6FF002205212520FFF750
:101F200089F925203BE0234FBB423AD1CB6943F4EA
:101F30000033CB61CB6903F4003304938B6943F026
:101F400004038B618969039001F004010491042169
:101F5000CDE9001269462846FEF7D4FF0820CDE9F6
:101F60000004694628460294FEF7CCFF134D124840
:101F7000C5E900048020C5E902402C616C61AC61B8
:101F80002846EC61FEF758FF08B1FEF795FCF563B3
:101F90000022042126206E62FFF74CF92620FFF76D
:101FA0003BF905B0F0BD00000038014000100240D0
:101FB00000080140004400406C000240A4030020DF
:101FC00090F84230202B01D00220704721B11AB185
:101FD0000023036300F0EABD0120704790F842300F
:101FE000202B01D00220704721B11AB100230363D6
:101FF00000F024BE012070472DE9F041054600683D
:102000002749284E884227D1274C284861782278D2
:102010004254491CC9B20844617010F8011C0A29D5
:102020001AD110F8020C0D2816D1204920A000F07A
:10203000FBFE30684006FCD51C494FF480774FF614
:10204000FF733A4601F52D7000F043F800206070F0
:1020500039461648FEF70EF92868B04218D11A4CD6
:1020600004F16A00A188628839B10844A11DFEF715
:10207000E8F8A0886188084403E0A11DFEF7E1F8B4
:102080006088A0806188A01DFEF7F4F80120207010
:10209000BDE8F041012204490C48FFF79FBF000052
:1020A000003801400044004005000020A800002046
:1020B0007573617274312072656320627566662083
:1020C00069732025730D0A00A80100201403002065
:1020D00070472DE9F843044690F841001F46164624
:1020E0000D46202802D00220BDE8F8837DB176B1EC
:1020F00000206064212084F84100FEF7FDFFA684E3
:102100008046E684A068B0F5805F02D003E001203D
:10211000EAE7206910B12E4600250EE000260CE00B
:102120008021204600F0A5FDA0B9AEB116F8010B44
:1021300021684860E08C401EE084E08C43464FF00C
:10214000000200970028EBD14FF04001204600F03C
:1021500090FD30B10320C7E735F8020BC0F308004B
:10216000E6E7202084F841000020BDE77047FEE745
:1021700010B5012000F016FEBDE81040002000F070
:1021800019BE10B5002000F00DFEBDE81040002083
:1021900000F010BE10B5012000F014FEBDE81040A4
:1021A000002000F017BE10B5002000F00BFEBDE8C7
:1021B0001040002000F00EBEFEB50024264800941A
:1021C00001942449029401608915816004730125FA
:1021D0000575052606614FF460214460C0E906518B
:1021E000FEF756FC08B1FEF767FBCDE900456946EE
:1021F00019480294FEF7CEFB08B1FEF75DFB022002
:10220000CDE9005069461448FEF7C4FB08B1FEF75B
:1022100053FB04240320CDE9004069460E48FEF735
:10222000B9FB08B1FEF748FBCDE9006469460A48EE
:10223000FEF7B0FB08B1FEF73FFB0620CDE9000634
:1022400069460548FEF7A6FB002801D0FEF734FBDF
:10225000FEBD00000024014078000020094808B5B8
:10226000416941F0010141614069002200F0010033
:10227000009005211020FEF7DDFFBDE8084010208A
:10228000FEF7CABF001002402DE9F04186B00024DD
:1022900034480094019402940394816941F0100140
:1022A0008161816901F010010491816941F020018F
:1022B0008161816901F020010491816941F004018B
:1022C0008161816901F004010491816941F0080193
:1022D00081618069244F00F00800049000224FF4CF
:1022E0008F513846FEF703FFDFF8808000224FF45D
:1022F00073414046FEF7FBFE4FF48750012503264D
:10230000CDE90005CDE9024669463846FEF7FAFDFB
:10231000009669464046CDE90145FEF7F3FD4FF4CE
:1023200070400226CDE90005CDE9024669464046E7
:10233000FEF7E8FD2802CDE90005CDE90246694631
:102340003846FEF7DFFD4FF44070009001AA1120DF
:1023500082E8510069464046FEF7D4FD06B0BDE86C
:10236000F08100000010024000080140000C014014
:102370000C4810B50A4901604FF416514160002124
:1023800081600C22C160C0E904128161C161FFF764
:1023900061FD002803D0BDE81040FEF78DBA10BDE6
:1023A00000380140140300200C4810B50A490160B0
:1023B0004FF416514160002181600C22C160C0E9D8
:1023C00004128161C161FFF745FD002803D0BDE81B
:1023D0001040FEF771BA10BD004400405C030020BD
:1023E000FEE7000010B5154800F0A3F9134C207863
:1023F000012803D1FFF7C5FEFFF7CCFE20780228A5
:1024000003D1FFF7D0FEFFF7B3FE2078032803D1F6
:10241000FFF7AEFEFFF7BEFE2078042803D1FFF7DA
:10242000B0FEFFF7C0FE2078002805D1FFF7A9FE17
:10243000BDE81040FFF7B7BE10BD000058000020F7
:10244000FEE7000010B5002000F09CFC05221549B5
:10245000302000F07EFC052212492A2000F079FC91
:102460000F21202000F0C6FC0121212000F0C2FC39
:102470000021252000F0BEFC2021312000F0BAFC14
:102480000121222000F0B6FC1A21242000F0B2FC29
:10249000FF21E22000F0AEFCBDE81040012000F07A
:1024A00071BC00000000002070B50024002120460F
:1024B00000F0D6F80025002000F0F4F86D1CEDB215
:1024C000802DF8D3641CE4B2082CEFD370BD00005B
:1024D00010B5064C012211022046FEF708FE2046E8
:1024E0000122BDE810405102FEF701BE000C014080
:1024F0002DE9F047144E002407464FF080084FF4B2
:102500000079B51528FA04F23A4049463046FEF7FC
:10251000EEFD012229463046FEF7E9FD002229465C
:102520003046FEF7E4FD641CE4B2082CEAD3012235
:1025300029463046FEF7DBFD29463046BDE8F04728
:102540000022FEF7D4BD0000000C014070B501224E
:102550000B4D540221462846FEF7C9FD0122160202
:1025600031462846FEF7C3FD002221462846FEF7E5
:10257000BEFD31462846BDE870400022FEF7B7BDDB
:10258000000C014070B50A4D4FF400740022214642
:102590002846FEF7ACFD012211022846FEF7A7FDF2
:1025A00021462846BDE870400122FEF7A0BD00008C
:1025B000000C014010B500204FF47A720021491C34
:1025C0009142FCD3401C9042F8D3FFF781FFAE202C
:1025D00000F057F8D52000F054F8802000F051F8B2
:1025E000A82000F04EF83F2000F04BF8D32000F078
:1025F00048F8002000F045F8402000F042F8A12003
:1026000000F03FF8C82000F03CF8DA2000F039F87C
:10261000122000F036F8812000F033F8CF2000F0CF
:1026200030F8D92000F02DF8F12000F02AF8DB2056
:1026300000F027F8302000F024F8A42000F021F862
:10264000A62000F01EF88D2000F01BF8142000F0EA
:1026500018F8AF2000F015F8BDE81040FFF724BFD0
:1026600010B50C4640F0B00000F00BF8102040EA26
:10267000141000F006F804F00F00BDE81040AFF3AE
:10268000008010B50446FFF761FF7820FFF730FFA8
:102690000020FFF72DFF2046FFF72AFFBDE810407E
:1026A000FFF770BF10B50446FFF750FF7820FFF723
:1026B0001FFF4020FFF71CFF2046FFF719FFBDE872
:1026C0001040FFF75FBF70B5044616460D46002068
:1026D00000F060FB204600F047F8002405E0285D8C
:1026E00000F042F82855641CE4B2B442F7D3BDE8C8
:1026F0007040012000F04EBB01210148FEF7F2BC02
:10270000000C014002210148FEF7ECBC000C014026
:1027100010B50446002000F03DFB204600F024F8F0
:10272000FF2000F021F80446012000F033FB204692
:1027300010BD70B505460720FFF7EAFF04464006C6
:1027400011D5202229466120FFF7BDFFFF21E2209D
:1027500000F050FB2146272000F04CFBBDE8704004
:102760009620FEF779B870BD2DE9F04100240646A9
:1027700025464FF0800800BF28FA05F707EA060053
:1027800000F030FB012000F047FBFFF7BBFF012802
:1027900000D13C43002000F03FFB6D1CEDB2082D42
:1027A000EAD32046BDE8F08110B5502080F31188AF
:1027B000BFF34F8FBFF36F8F01F088F818B1044952
:1027C0004FF080500860002080F3118810BD000099
:1027D00004ED00E030B593B028216846FDF74AFDCE
:1027E00014210AA8FDF746FD002501200F9510953C
:1027F0001195010412958DE8230004904FF4E01028
:10280000CDE90810022407946846FEF709FF08B1D5
:1028100072B6FEE70AA90F2081E831004FF480600C
:10282000CDE90D0502210AA8FEF7FEFD08B172B63A
:10283000FEE74FF4004011900F940FA8FEF77EFDC5
:10284000002801D072B6FEE713B030BD704700001B
:102850000148FFF7D2B80000E8030020F0B5026895
:10286000164B174C174D4FF08047984205D0B84291
:1028700003D0A04201D0A84203D122F070064A68DA
:102880003243984205D0B84203D0A04201D0A842BA
:1028900003D122F44074CA6822434C6922F08002BA
:1028A000224302608A68C2620A688262984201D149
:1028B0000969016301214161F0BD0000002C014064
:1028C000000400400008004010B5406A0021C185A6
:1028D000C184FFF788F910BD70B5446A206840696B
:1028E00094F84110C0F3C0100025212904D118B17B
:1028F000E584204600F08EF82068406994F8421084
:10290000C0F38010222904D118B1E585204600F0DB
:102910005AF8606C40F0100060642046FFF763F9DD
:1029200070BD10B50146406A096809684FF00002A1
:1029300089062ED4C28501680C3151E8003F23F48A
:10294000807341E80034002CF5D10168143151E85E
:10295000003F23F0010341E80034002CF5D1016869
:10296000143151E8003F23F0400341E80034002CCB
:10297000F5D1202180F84210016B012909D10168AD
:102980000C3151E8003F23F0100341E80034002CE3
:10299000F5D14263016B012902D0FFF72DFB10BD79
:1029A000818DFFF7E7F810BD10B5406A0121416342
:1029B000016B012902D0FFF78BFB10BD818D490807
:1029C000FFF7D8F810BD01680C3151E8002F22F450
:1029D000907241E80023002BF5D10168143151E8D1
:1029E000002F22F0010241E80023002BF5D1016BFA
:1029F000012909D101680C3151E8002F22F01002A1
:102A000041E80023002BF5D1202180F8421000215D
:102A10000163704701680C3151E8002F22F0C002B9
:102A200041E80023002BF5D1202180F841107047A8
:102A300008B590F84210222901D0022008BD826812
:102A40004FF480539A4201D1016921B1816A9A42BF
:102A50001BD04AB10AE00268816A5268C2F30802D8
:102A60000A80816A891C08E0026972B102685268B2
:102A700002F07F020A70816A491C8162C18D491E81
:102A80000904090CC18503D01BE002685268F1E714
:102A90000168CA6822F02002CA600168CA6822F48C
:102AA0008072CA6001684A6922F001024A612021ED
:102AB00080F8421000214163026B012A03D0FFF726
:102AC0009BFA002008BD016301680C3151E8002F1A
:102AD00022F0100241E80023002BF5D101680A68BA
:102AE000D20602D50A6849680091818DFFF742F845
:102AF000E7E7000070B5044600680169E26821F468
:102B00004051114301612169A0680843616908438C
:102B10002168CA6841F20C639A430243CA60206884
:102B20004169A26921F44071114341611E49206845
:102B3000884202D1FEF73EFD01E0FEF72BFD00EBDF
:102B4000C00101EB0012606864218000B2FBF0F369
:102B5000B3FBF1F36FF018067343B2FBF0F5B2FB71
:102B6000F0F605EB8305322303EB0515B5FBF1F514
:102B7000B6FBF1F605F0F00505EB0615B2FBF0F635
:102B8000B2FBF0F0B0FBF1F06FF01802504306EB2F
:102B9000800003EB0010B0FBF1F0216800F00F00A3
:102BA0002844886070BD00000038014038B581625B
:102BB00004468285002013466064222284F8422065
:102BC000E56B1B4AAA62E56B1A4AEA62E56B1A4A90
:102BD0002A63E26B50630A462168E06B091DFEF729
:102BE00059F92068016840680090206948B1206860
:102BF0000C3050E8001F41F4807140E80012002AB8
:102C0000F5D12068143050E8001F41F0010140E880
:102C10000012002AF5D12068143050E8001F41F05E
:102C2000400140E80012002AF5D1002038BD000024
:102C300023290008A9290008D92800088162828573
:102C4000C28500214164222180F84210016921B12E
:102C50000168CA6842F48072CA6001684A6942F039
:102C600001024A610068C16841F02001C160002092
:102C700070472DE9F041984617460E460446069DDA
:102C800027E0681C25D02DB1FEF736FAA0EB08002E
:102C9000A8421ED920680C3050E8001F21F4D071E2
:102CA00040E80012002AF5D12068143050E8001FD7
:102CB00021F0010140E80012002AF5D1202084F81B
:102CC000410084F84200002084F840000320BDE861
:102CD000F0812068006836EA000004D00020B84285
:102CE000CFD00020F3E70120F9E700000148FEF70C
:102CF0007BBF00001403002038B5124C2068016827
:102D0000C943C9061CD40168406800902046FEF7FC
:102D100032FF2068016840680B48006840680B4C2F
:102D2000C0F1640060800748FFF766F90548FEF7C8
:102D30005BFF6422A11DBDE838400248FFF740B99F
:102D400038BD00005C030020A4030020A80100207F
:102D5000FEE770B5044615460E46002000F01AF84E
:102D60002046FFF701FD002404E0305DFFF7FCFC86
:102D7000641CE4B2AC42F8D3BDE87040012000F01E
:102D800009B80000024680210148FEF7B0B90000F2
:102D900000080140024640210148FEF7A8B90000A2
:102DA0000008014002464FF480510148FEF79FB9E8
:102DB000000C014002464FF400510148FEF797B95C
:102DC000000C014002464FF480410148FEF78FB9E4
:102DD000000C014002464FF400410148FEF787B95C
:102DE000000C014002464FF480510148FEF77FB9C4
:102DF0000008014070B504460D460020FFF7CAFFE9
:102E00002046FFF7B1FC2846FFF7AEFCBDE8704056
:102E10000120FFF7BFBF0000024620210148FEF756
:102E200066B90000000801400FB4054B10B503A9B6
:102E3000044A029800F0EAF810BC5DF814FB0000A8
:102E400015370008540000200907090E002804DB8C
:102E500000F1E02080F80014704700F00F0000F14E
:102E6000E02080F8141D704702E008C8121F08C156
:102E7000002AFAD170477047002001E001C1121FFB
:102E8000002AFBD1704700002DE9FF5F82B00021CE
:102E9000DDE90430020DDDF840B0034318D044F6FC
:102EA0001050A2F2FF3242431514119801281FD08E
:102EB000A5EB0B00401C5FEA000A4FF000064E4FE6
:102EC000DFF83891B046504615D5CAF1000413E03A
:102ED000119801244AA3012801D16FEA0B0102983D
:102EE000119AC0E90031C0E9024206B0BDE8F09F86
:102EF000CBF10000DFE704460021404A491842EBCD
:102F00000450CDE9001012E0E00707D032463B46FE
:102F100040464946FDF760FA8046894632463B46C0
:102F200010461946FDF758FA06460F466410002C65
:102F3000EAD1DDE90401DDE90023BAF1000F06DA88
:102F4000FDF74AFA42464B46FDF746FA05E0FDF723
:102F5000B5FA42464B46FDF7B1FA04460E4600224A
:102F6000284BFDF71BFB03D84FF0FF30014607E06D
:102F70000022254B20463146FDF787F9FDF7BAFBC5
:102F8000102409E0002C0ADB0A220023FDF718F9BF
:102F9000039B30321A55641E50EA0102F2D1641CC0
:102FA000039AC4F111031444119A012A03D0012297
:102FB00008430DD10AE0084304D000204FF0110B64
:102FC000119072E7A3EB0B056D1E0DE05B4504DD70
:102FD0004FF0000205F1010504E003DA4FF00002B2
:102FE000A5F10105002AECD002981199C0E902313F
:102FF000C0E9004579E70000000014400000F03F00
:10300000300000000000F0430000E03F2DE9FF4FDA
:1030100095B09A46884606460025EEE1252877D1E8
:1030200000242746F94A0121039400E0044316F8DE
:10303000013F203B01FA03F01042F7D130782A28F3
:1030400011D06FF02F033078A0F13002092A16D882
:10305000039A44F0020402EB820203EB42021044A2
:10306000761C0390EFE758F8042B0392002A03DA4A
:10307000504244F40054039044F00204761C30782B
:103080002E2816D116F8010F44F004042A280DD07A
:103090006FF02F023078A0F13003092B09D807EB2D
:1030A000870302EB4303C718761CF3E758F8047B49
:1030B000761C30786C280FD006DC4C2817D0682896
:1030C0000DD06A2814D104E0742810D07A280FD1CA
:1030D0000DE044F400140AE044F4801401E044F4E8
:1030E00040147278824202D104F58014761C761C5A
:1030F000307866280BD013DC582877D009DC0028FC
:1031000075D04528F6D04628F4D047281AD193E147
:1031100018E0632835D0642879D0652812D18BE176
:10312000702873D008DC6728F1D069286FD06E282A
:103130000DD06F2806D1ACE073282CD0752874D040
:10314000782853D05246179990476D1C54E1C4F328
:103150000250022809D003280DD0D8F80010042806
:103160000DD00D6008F1040846E1D8F80010EA1708
:10317000C1E90052F6E7D8F800100D80F2E70D70B3
:10318000F0E718F8041B8DF8001000208DF80100FE
:10319000EB46012003E058F804BB4FF0FF30610715
:1031A0004FF0000102D40DE009F101018946B94256
:1031B0000FDA8145F8DB1BF809100029F4D108E08B
:1031C00009F1010189468142FADB1BF80910002947
:1031D000F6D103985346A0EB090721463846179AC3
:1031E00000F080FA284400EB090507E044E008E11C
:1031F0000DE01BF8010B524617999047B9F10109F0
:10320000F7D2534621463846179AF2E039E00A21B0
:10321000C4F302524FF0000B0091022A06D058F876
:10322000040BC117032A09D00AE023E008F10700C4
:1032300020F00702F2E80201904605E000B2C11753
:10324000042A01D140B2C117002906DA0A4600213A
:10325000404261EB02012D2202E0220504D52B221F
:103260008DF80420012203E0E20701D02022F7E7D5
:10327000914657E00A2100E010214FF0000B009129
:103280000BE010214FF0000B44F0040408270091DC
:1032900003E008204FF0000B0090C4F30252022A12
:1032A00005D058F8040B0021032A08D008E008F1E3
:1032B000070020F00702F2E80201904603E080B226
:1032C000042A00D1C0B24FF0000922072AD5327873
:1032D000702A07D0DDF800C08CF0100C5CEA0B0CF3
:1032E00005D00EE040228DF80420012208E050EACB
:1032F000010306D030238DF804308DF8052002221A
:103300009146009B83F0080353EA0B030AD150EA6D
:10331000010201D1620705D530228DF804204FF05B
:1033200001097F1E3278582A04D039A20C920CAAC7
:1033300002920BE03BA2F9E75B46009AFCF740FFE4
:103340000C9B9B5C029A521E0292137050EA01027F
:10335000F2D1029804A9081A00F1200B600702D5E7
:1033600024F4803400E001275F4502DDA7EB0B0069
:1033700000E0002000EB0B01009003984944401A44
:103380000390E00306D453462146179A039800F0B1
:10339000A9F90544002706E001A85246C05D179927
:1033A00090476D1C7F1C4F45F6DBE0030CD5534660
:1033B0002146179A039800F095F9054404E030205F
:1033C0005246179990476D1C0099481E009000299D
:1033D000F5DC08E00298029952460078491C0291F7
:1033E000179990476D1CBBF10001ABF1010BF1DCAB
:1033F0005BE100F065F90544761C307800287FF425
:103400000DAE19B02846BDE8F08F00000928010074
:10341000303132333435363738396162636465664A
:10342000000000003031323334353637383941420C
:103430004344454600000000600700D4062708F119
:10344000070020F00700F0E80223804603F0004C5C
:103450005FEA0C0001D097A009E0200501D596A0F5
:1034600005E0E00701D095A001E0AFF24C00139019
:10347000307823F0004365280CD006DC452809D0BD
:1034800046281DD047287FD13BE0662818D0672802
:103490007AD136E00021112F01DB112000E0781CE9
:1034A000CDE9000104A90CA8FFF7EEFCDDE90D0150
:1034B0000C9A4FF0000B07F10109109200914EE0B9
:1034C0004FF000400097CDE9011004A90CA8FFF7C8
:1034D000DBFCDDE90D020C9B0F994FF0000B9146D0
:1034E0001093009211B9791C00EB0109B7EB0900A8
:1034F00003D4C0F1FF3B07F10109A9EB07000190DC
:1035000042E0012F00DA01270021112F01DD1120F7
:1035100000E03846CDE9000104A90CA8FFF7B4FC8F
:10352000DDE90D010C9A00914FF0000BB9461092A5
:1035300021070FD4009A4A4503DA914601E0A9F128
:103540000109B9F1010F05DD109AA9F10101515CE2
:103550003029F4D0B84202DA10F1040F03DA012165
:10356000CDE9011010E0002803DC8344A9EB000141
:1035700002E0411C494500DD8946A0EB0B00401CE0
:1035800001904FF000400290200705D40198484573
:1035900002DB4FF0FF30019000208DF84B000298C5
:1035A0000DF14B07B0F1004F25D002200C902B20DD
:1035B0000D90029800280CDA404202902D200D90C8
:1035C00007E00A210298FDF701F83031029007F870
:1035D000011D0C99481E0C900029F2DC029800286D
:1035E000EFD1791E0D980870307800F0200040F07F
:1035F000450007F8020D11A8C01BC01D02901398CA
:10360000007800B1012000EB0901019801EBE071A5
:10361000029801440398401A401E0390E00306D428
:1036200053462146179A039800F05CF80544139816
:10363000007818B15246179990476D1CE00323D5C6
:1036400053462146179A039800F04CF805441BE0B6
:10365000BBF1000F07DB0098584504DD109817995F
:1036600010F80B0001E0179930205246904701985E
:103670000BF1010B401E05F10105019004D12E2034
:103680005246179990476D1CB9F10001A9F1010943
:10369000DEDC05E017F8010B5246179990476D1CC8
:1036A0000299481E02900029F4DC53462146179ADD
:1036B00003989EE62D0000002B0000002000000073
:1036C0002DE9F041044600251E461746880404D41F
:1036D00005E039462020B0476D1C641EF9D5284608
:1036E000BDE8F0812DE9F041044600251E469046D4
:1036F000C80301D5302700E02027880404D505E061
:1037000041463846B0476D1C641EF9D52846BDE8D1
:10371000F081000013B54FF6FF730122694602489D
:10372000FEF7D7FC00981CBD14030020FDF7F2FC47
:10373000FFF750F8FEF7A8FDFEF790FDFEF718FE24
:10374000FEF732FEFEF738FD0B48FDF7B7F8FEF73F
:1037500031FFFEF72FFFFEF775FE08A0FFF764FBB1
:10376000FDF78AF8FEF7C8FF0028FBD100F00EF83D
:10377000FEF738FEF6E700007800002073797374D6
:10378000656D206973206F6B2100000010B5124831
:10379000FEF7CFFF104C2078012802D10FA0FFF7D1
:1037A00043FB2078022802D10EA0FFF73DFB2078D2
:1037B000032802D10DA0FFF737FB2078042802D19F
:1037C0000CA0FFF731FB2078002804D1BDE81040A1
:1037D0000AA0FFF729BB10BD58000020586C656691
:1037E0007400000058726967687400005962656669
:1037F0006F72650059616666657200006E6F63687E
:10380000616E67650000000006484168096829B1DB
:103810004168C968C9684968016370474FF0FF3162
:10382000FAE7000018000020D0E9013201699A602F
:10383000D0E901235A604A68824201D182684A6015
:10384000002202610868401E0860086870474268EC
:103850004A6093688B609368596091600861016861
:10386000491C016070470000164810B5816B11B10A
:103870000121416210BD002141628169124A01E0CB
:10388000B9B1491E01EB810352F82330002BF7D068
:1038900001EB810302EB830202F1080453685B68C9
:1038A0005360A34201D15B685360DA6802608161B2
:1038B00010BD502080F31188BFF34F8FBFF36F8F7F
:1038C000FEE7000018000020300400202DE9F04140
:1038D0002E4C0027A06B40B1206A401C2062606A19
:1038E00000B101273846BDE8F0816669761C666143
:1038F00013D16068006838B1502080F31188BFF39D
:103900004F8FBFF36F8FFEE76068A1686160A060B2
:10391000A06A401CA062FFF777FF206BDFF8708081
:10392000864209D36068006880B16068C068C56875
:10393000686886420DD220632068C06A00EB80016F
:1039400058F821000128CAD90127C8E74FF0FF30F5
:10395000F1E7281DFFF768FFA86A18B105F1180004
:10396000FFF762FFE86AA169884200D9A06100EB15
:10397000800108EB8100291DFFF769FFE86A2168D3
:10398000C96A8842CED30127CCE700001800002086
:1039900030040020010202030405060708090A0B8F
:1039A0000C0D0E0F10100102020304050607080992
:1039B0000A0B0C0D0E0F101000000000000000009C
:1039C00001020304060708090000000001020304C5
:1039D000F03900080000002058000000682E0008A0
:1039E000483A000858000020A00C0000782E00087B
:1039F000F0F0F0F0F0000000010000001000000006
:103A0000000000000024F40000000000000000009E
:103A100000000000000000000000000000000000A6
:103A20000000000000000000000000000000000096
:103A30000000000000000000000000000000000086
:083A400000000000000000007E
:04000005080000ED02
:00000001FF
