:020000040800F2
:100000009007002005010008431900081317000895
:1000100041190008EB010008492200080000000017
:10002000000000000000000000000000D51C0008D7
:100030002302000800000000571C0008451D0008AE
:100040001F0100081F0100081F0100081F01000810
:100050001F0100081F0100081F0100081F01000800
:100060001F0100081F0100081F0100081F010008F0
:100070001F0100081F0100081F0100081F010008E0
:10008000ED0100081F0100081F0100081F01000802
:100090001F0100081F0100081F0100081F010008C0
:1000A0001F0100081F0100081F0100081F010008B0
:1000B0001F0100081F0100081F0100081F010008A0
:1000C0001F0100081F0100081F0100081F01000890
:1000D0001F010008E5210008F12100081F010008A8
:1000E0001F0100081F0100081F010008DFF810D0E1
:1000F00000F03EF8004800472D240008AFF30080D0
:10010000900700200648804706480047FEE7FEE7C4
:10011000FEE7FEE7FEE7FEE7FEE7FEE7FEE7FEE7B7
:10012000BF1D0008ED00000840EA01039B0703D053
:1001300009E008C9121F08C0042AFAD203E011F826
:10014000013B00F8013B521EF9D27047D2B201E0E8
:1001500000F8012B491EFBD270470022F6E710B5CC
:1001600013460A4604461946FFF7F0FF204610BD25
:10017000064C074D06E0E06840F0010394E80700F4
:1001800098471034AC42F6D3FFF7B4FF282B000891
:10019000482B000870B5044600688168C943C90748
:1001A00017D1816821F00101816000F021FC054632
:1001B0000AE000BF00F01CFC401B022804D92068A4
:1001C0008068C043C00706D020688068C043C0076D
:1001D000F0D0002070BDA06A40F01000A062E06A7C
:1001E00040F00100E062012070BDFEE7014800F030
:1001F000E3B900004803002030B590F840500124D6
:10020000AC40C56B6C60046863604368102B036886
:1002100003D099600068C26030BD9A600068C16018
:1002200030BD704708B501220B490C4801F0A8F910
:100230000A4848300168CA6842F01002CA60006883
:100240000168406800900649BDE80840642201F555
:10025000D77001F087B9000005000020B802002027
:100260005201002072B6FEE7F8B50024009490F821
:1002700024202546012A12D0012280F824204A6831
:100280001F23072A0DD20668776B521E02EB8202EB
:1002900093409F430B6893401F43776319E002200C
:1002A000F8BD06680D2A0AD2376BD21F02EB820214
:1002B00093409F430B6893401F43376309E0F76AFD
:1002C0000D3A02EB820293409F430B6893401F4319
:1002D000F7620A68072306680A2A0AD3F7680A3A07
:1002E00002EB420293409F438B6893401F43F760A9
:1002F00008E0376902EB420293409F438B689340CA
:100300001F4337610A68102A01D0112A20D1124BED
:1003100002689A4217D193681B0219D4936843F478
:10032000000393600968102912D10C490C4A09682E
:10033000B1FBF2F101EB8101490000E0491E00919F
:100340000029FBD104E0816A41F02001816201248F
:1003500080F824502046F8BD0024014014000020FD
:1003600040420F002DE9F0414FF0000704003D46E8
:100370007ED0A06A002628B9E66284F82460204670
:1003800000F07EF82046FFF705FFA16AC90600D4F9
:1003900020B1A06A40F01000A06269E0A16A21F4D7
:1003A000885141F00201A1626268E169237B0A433E
:1003B00047EA43010A43A1684FF48077B94209D064
:1003C000012907D05FF0000194F814C0BCF1010FBF
:1003D00002D00AE03946F7E7F3B1A36A43F02003FD
:1003E000A362E36A43F00103E3622368D3F804C025
:1003F0002CF4694C4CEA010CC3F804C021688B68EA
:10040000DFF870C003EA0C0313438B60A168B942A4
:100410000BD0012909D00CE0DFF85CC0A3690CEB1C
:1004200043330B4343F40061DFE7218A0D05A5F553
:1004300080152168CB6A23F470032B43CB622168BB
:1004400089680E4B1940914208D1E662A16A21F0F9
:10045000020141F00101A162BDE8F081A06A20F033
:10046000020040F01000A062E06A40F00100E0628B
:100470000120F1E7FDF7E1FF00E0FFFFFE0E1FFFA7
:1004800000B585B0002100910191029103910068AF
:100490000E49884217D10E48816941F4007181618B
:1004A000816901F400710491816941F00401816165
:1004B0008069694600F004000490032000900190D8
:1004C000044800F09BF905B000BD00000024014085
:1004D000001002400008014010B590F821100022E1
:1004E000022905D00421816380F82020012010BD5D
:1004F00001680B6823F00E030B6001680B6823F0A2
:1005000001030B6090F84030C46B012101FA03F342
:10051000636080F8211080F82020104610BD000094
:1005200010B590F821100024022903D00421816322
:1005300001243DE001680A6822F00E020A600168A9
:100540000A6822F001020A601A4A0168914201D148
:10055000012121E0174A1432914201D110211BE000
:10056000144A2832914201D1891515E0114A3C32D2
:10057000914201D189140FE00E4A5032914202D1CA
:100580004FF4803108E00B4A6432914202D14FF4BB
:10059000801101E04FF08071064A083A5160012154
:1005A00080F82110002180F82010416B01B18847AC
:1005B000204610BD080002402DE9F05FC16B0C68B9
:1005C00001680B68D0F840C0042202FA0CF2494DD1
:1005D000DFF824A1494E4A4FDFF828B1DFF828E1BF
:1005E00022422CD05A072AD50A68920603D40A68F8
:1005F00022F004020A600168A94201D1042219E034
:10060000514501D1402215E0B14202D14FF4806240
:1006100010E0B94202D14FF480420BE0594502D1BB
:100620004FF4802206E0714502D14FF4800201E0D0
:100630004FF080622F4908394A60C16A3BE04FF0B1
:10064000020808FA0CF818EA040F4FF000094FF0FE
:10065000010235D05FEA837832D50B689B0605D45A
:100660000B6823F00A030B6080F821200168A9427F
:1006700001D1022219E0514501D1202215E0B142F9
:1006800002D14FF4007210E0B94202D14FF400528F
:100690000BE0594502D14FF4003206E0714502D11A
:1006A0004FF4001201E04FF00072124908394A601D
:1006B00080F82090816A00291AD0BDE8F05F0847D1
:1006C000082505FA0CF5254212D01B0710D50B683A
:1006D00023F00E030B6090F84010C36B02FA01F197
:1006E0005960826380F8212080F82090016BE2E756
:1006F000BDE8F09F080002401C00024030000240AC
:1007000044000240580002406C00024030B528B35B
:1007100008C8134914221944B1FBF2F18900C163DE
:1007200010498163022141771A6843F6F0718A43C8
:10073000D0E900142143D0E902452C432143046948
:1007400021434469214384692143114319600021F5
:100750004163012242770177084630BD012030BD58
:10076000F8FFFDBF0000024070B5044690F820007D
:10077000002501280CD0012084F8200094F8216085
:100780000020012E06D084F820000225284670BDE6
:10079000022070BD022684F82160A06320680668EC
:1007A00026F0010606602046FFF726FDE06A0028D5
:1007B0002068016802D041F00E0106E021F004013A
:1007C00001602068016841F00A0101602068016849
:1007D00041F001010160D9E770B5044600F008F965
:1007E0000546601C02D004480078044400F000F97B
:1007F000401BA042FAD370BD080000202DE9F84F3D
:10080000DFF8B8910024A9F1040B23460F2709F162
:10081000040AABF1040EC9E00125A5402A40AA4212
:100820007DD1674ED1F804C0ACEB0608B44532D098
:1008300014DCBCF1030F3AD009DCBCF1000F2AD064
:10084000BCF1010F1CD0BCF1020F31D11DE0BCF195
:10085000110F17D0BCF1120F2AD119E0B8F5881F7B
:1008600019D006DCB8F5803F15D0B8F5801F1FD130
:1008700011E0B8F5001F0ED0B8F5041F18D10AE03A
:10088000CB6815E0CB681B1D12E0CB6808330FE086
:10089000CB680C330CE08B682BB1012B4FF00803B5
:1008A00003D0456104E0042302E0056100E0002379
:1008B000FF2A01D8064601E000F104064FEA84054C
:1008C00001D9A5F12005D6F8008007FA05FC28EA31
:1008D0000C0803FA05F548EA0508C6F800804D68DB
:1008E000ED0062D5374DAE6946F00106AE61AD69E7
:1008F00024F0030605F001050095334D06EB050CC9
:10090000DCF80850A607360F07FA06F825EA0805AE
:10091000DFF8B880404503D14FF0000817E044E00D
:10092000DFF8AC80404502D14FF001080FE0DFF85E
:10093000A480404502D14FF0020808E0DFF898801B
:10094000404502D14FF0030801E04FF0040808FAD7
:1009500006F848EA0508CCF808804D68D9F8006028
:10096000ED024D4601D5164300E096432E604D68DA
:10097000DAF80060AD02554601D5164300E0964313
:100980002E604D68DBF80060AD035D4601D516436F
:1009900000E096432E604D68DEF80060ED0375467A
:1009A00001D5164300E096432E60641C0D682A466C
:1009B000E5407FF431AFBDE8F88F00000804014046
:1009C000000011100010024000000140000801402A
:1009D000000C0140001001400014014080680840F4
:1009E00000D0012070470AB1016170470904FBE79C
:1009F00001488068704700000800002002488168B4
:100A0000027811448160704708000020074810B543
:100A1000016841F010010160032000F075F80F201B
:100A200000F006F800F024F8002010BD002002407D
:100A300070B50D4D04464FF47A712878B1FBF0F093
:100A40000A490968B1FBF0F000F052FB48B9102CDC
:100A500007D200222146501E00F036F800206C60BC
:100A600070BD012070BD00000800002014000020AF
:100A70000C4808B5816941F001018161816901F08B
:100A800001010091C16941F08051C161C06900F06C
:100A9000805000900448416821F0E06141F000710D
:100AA000416008BD0010024000000140002809DB41
:100AB00000F01F02012191404009800000F1E02078
:100AC000C0F8001170470000F0B40E4B1B680C46D4
:100AD000C3F30223C3F10705042D00D90425191D12
:100AE000072901D2002300E0DB1E012606FA05F1EA
:100AF000491E214099409E40761E16403143F0BC6D
:100B000001F0FEBB0CED00E0064900F007020868AA
:100B10004FF6FF03184040EA0220034A10430860E2
:100B2000704700000CED00E00000FA052DE9F843E5
:100B300005460078354CC00754D0E0690026C00057
:100B400008D4E06940F08050E061E069012600F0DF
:100B5000805000902E480168C90512D40168804673
:100B600041F480710160FFF743FF074605E000BFD5
:100B7000FFF73EFFC01B642823D8D8F80000C0054B
:100B8000F6D5206A10F4407021D0A98801F4407194
:100B900081421CD0206A1F49012220F440700A6063
:100BA00000220A602062C00711D0FFF721FF07462C
:100BB00041F2883808E000BFFFF71AFFC11B41452A
:100BC00002D90320BDE8F883206A8007F4D5206AA3
:100BD000696820F44070084320621EB1E06920F08B
:100BE0008050E0612878800705D56068A96820F406
:100BF0004040084360602878C00605D56068E96811
:100C000020F48000084360600020DBE70010024011
:100C100000700040400442422DE9F0470F460500B5
:100C200061D0434E306800F00700B84209D2306806
:100C300020F0070038433060306800F00700B84209
:100C400051D128683B4C810712D5400703D5606815
:100C500040F4E06060602878000703D5606840F4E5
:100C6000605060606068A96820F0F0000843606030
:100C70002878C00728D06868012810D02168022889
:100C800010D0890700292EDA616821F003010143A1
:100C90006160FFF7ADFE804641F288390DE02168C2
:100CA0008903EFE78901EDE7FFF7A2FEA0EB08015A
:100CB000494502D90320BDE8F0876068696800F003
:100CC0000C00B0EB810FEFD1306800F00700B842A4
:100CD0000BD9306820F0070038433060306800F0EE
:100CE0000700B84201D00120E5E72878400705D584
:100CF0006068E96820F4E0600843606028780007D5
:100D000006D56068296920F4605040EAC10060603F
:100D100000F038F86168084AC1F30311515CC8401B
:100D20000649086006480068FFF782FE0020C2E717
:100D300000200240001002400E2B0008140000208A
:100D40000C0000200448054900684968044AC1F3C2
:100D50000221515CC840704714000020001002407E
:100D60001E2B00080448054900684968044AC1F37D
:100D7000C221515CC840704714000020001002409E
:100D80001E2B00080E4A51680E4801F00C03042B7C
:100D900011D0082B0FD10C48C1F38343C903C05CA9
:100DA0000AD55168084AC1F34041921E515C054A78
:100DB0005043B0FBF1F070470449484370470000CE
:100DC0000010024000127A00FE2A000800093D00CF
:100DD0002DE9F84F040070D02078C04DC00749D0ED
:100DE0006868C0F38100012807D06868C0F38100FB
:100DF000022809D16868C00306D52868800339D560
:100E000060680028E7D035E06068B0F5803F0BD01F
:100E100010B1B0F5A02F11D0286820F480302860E0
:100E2000286820F4802002E0286840F480302860A0
:100E3000606890B1FFF7DCFD06460AE0286840F4E0
:100E400080202860F0E700BFFFF7D2FD801B6428F8
:100E500073D828688003F7D50CE0FFF7C9FD064674
:100E600005E000BFFFF7C4FD801B6428F0D82868A8
:100E70008003F7D420789A4E80074FF001094FF095
:100E8000000839D5686810F00C0F07D06868C0F307
:100E90008100022809D16868C00306D42868800749
:100EA00014D52069012808D110E02069B0B1C6F836
:100EB0000090FFF79DFD074605E00AE1FFF798FD6A
:100EC000C01B0228C4D828688007F7D52868616944
:100ED00020F0F80040EAC10028600DE0C6F800806C
:100EE000FFF786FD074604E0FFF782FDC01B0228DE
:100EF00023D828688007F7D4207800072CD57948B4
:100F0000A169D9B1C0F80090FFF772FD074604E06F
:100F1000FFF76EFDC01B02280FD8686A8007F7D55F
:100F200071484FF4FA510068B0FBF1F0009000BF37
:100F30000098411E0091FAD20EE080E0C0F80080D7
:100F4000FFF756FD074604E0FFF752FDC01B0228DD
:100F500075D8686A8007F7D42078400760D5E869BB
:100F60000027C00008D4E86940F08050E861E869D3
:100F7000012700F0805000905C480168C90513D437
:100F80000168834641F480710160FFF731FD8246BC
:100F900006E000BFFFF72CFDA0EB0A0064284ED846
:100FA000DBF80000C005F5D5E06801280AD008B1DB
:100FB000052813D0286A20F001002862286A20F052
:100FC000040002E0286A40F001002862E06841F273
:100FD000883B98B1FFF70CFD82460BE0286A40F091
:100FE00004002862EEE700BFFFF702FDA0EB0A0154
:100FF00059455AD8286A8007F6D50CE0FFF7F8FC67
:10100000824605E0FFF7F4FCA0EB0A0159454CD8F5
:10101000286A8007F6D41FB1E86920F08050E861A3
:10102000E06988B36968C1F38101022944D00228CC
:10103000C6F8608004D0FFF7DBFC044638E034E0FB
:10104000FFF7D6FC074604E0FFF7D2FCC01B0228DE
:101050002BD828688001F7D4206AB0F5803F05D1ED
:101060006868A16820F4003008436860D4E908018A
:101070000843696821F4741108436860C6F86090F9
:10108000FFF7B6FC044606E025E000BFFFF7B0FC22
:10109000001B022809D828688001F7D51BE000BF93
:1010A000FFF7A6FC001B022802D90320BDE8F88F39
:1010B00028688001F4D40EE00128F7D06868226A1D
:1010C00000F48031914204D1616A00F470108842CA
:1010D00001D00120EAE70020E8E70000001002400C
:1010E0000000424280044242140000200070004090
:1010F00010B5401EB0F1807F01D3012010BD4FF02C
:10110000E02460610F21601701F0FAF80020A0616F
:1011100007202061002010BD704710B5044600680C
:10112000406994F84110C0F3C010212911D180B159
:101130002068143050E8001F21F0800140E80012C0
:10114000002AF5D1A06B08B1FFF7C6F9204600F0E0
:10115000DDFE2068406994F84210C0F38010222917
:1011600011D180B12068143050E8001F21F04001F7
:1011700040E80012002AF5D1E06B08B1FFF7ACF9A6
:10118000204600F09CFE002010BD7047F8B50168B5
:1011900004460868CA684B6910F00F0F4FF000054D
:1011A00059D003F0010602F49077374365D0C107A8
:1011B00005D0D10503D5616C41F00101616441079F
:1011C00005D5D90703D0616C41F002016164810744
:1011D00005D5D90703D0616C41F0040161640107B2
:1011E00007D502F02001314303D0616C41F00801C2
:1011F0006164616C00293AD0800604D5900602D55E
:10120000204600F091FE20684069616CC0F38010B8
:10121000090700D460B3204600F051FE2068406901
:10122000400621D52068143050E8001F21F040010D
:1012300040E80012002AF5D1E06BA8B16D49416386
:10124000E06BFFF76DF9002811D0E06B416B01B046
:10125000BDE8F040084783060FD593060DD520461C
:10126000BDE8F84000F060BE2046FFF78EFFF8BDF5
:101270002046FFF78AFF6564F8BD266B2023012E08
:101280007CD1C6067AD5D60678D50868486800901D
:1012900048694FF00206400640D5E16B0868406897
:1012A0000004000CE8D0A28D8242E5D9E08588696F
:1012B00020282DD020680C3050E8001F21F48071C8
:1012C00040E80012002AF5D12068143050E8001FD1
:1012D00021F0010140E80012002AF5D12068143005
:1012E00050E8001F21F0400140E80012002AF5D12B
:1012F00084F84230256320680C3050E8001F21F04C
:10130000100140E80012002AF5D1E06BFFF7E4F885
:101310006663A08DE18D401A81B22AE0A08DE18D37
:10132000401A81B2E08D0028A6D00029A4D02268FE
:101330000C3252E8000F20F4907042E80007002FB2
:10134000F5D12068143050E8002F22F0010240E867
:101350000027002FF5D184F84230256320680C3037
:1013600050E8002F22F0100240E80023002BF5D1B6
:1013700066632046FFF7D0FEF8BDFFE705062BD5D4
:10138000150629D594F841002128F5D1A068B0F5BB
:10139000805F01D12069B0B1206A411C21622168BF
:1013A00000784860E08C401E0004000CE084E3D12B
:1013B0002068C16821F08001C1602068C16841F0E7
:1013C0004001C160D8E7206A0088C0F30800486087
:1013D000206A801C2062E5E74006CDD55006CBD5BB
:1013E000CA68204622F04002CA6084F8413000F00A
:1013F0008FF9C1E7C11D000870B5040004D094F84E
:101400004100002510B106E0012070BD84F8405075
:10141000204600F023F8242084F841002068C168A9
:1014200021F40051C160204600F0E0FD2068016910
:1014300021F4904101612068416921F02A01416154
:101440002068C16841F40051C1606564202084F8BF
:10145000410084F842006563002070BDF0B585B09E
:10146000002400940194029403940646374F0368C5
:10147000374902220320374DBB4226D18B6943F402
:1014800080438B618B6903F4804304938B6943F041
:1014900004038B618969039001F004010491110236
:1014A000CDE9001269462846FFF7A8F92815CDE9CD
:1014B0000004694628460294FFF7A0F9002211466D
:1014C0002520FFF701FB25203BE0234FBB423AD10B
:1014D000CB6943F40033CB61CB6903F4003304934D
:1014E0008B6943F004038B618969039001F0040167
:1014F00004910421CDE9001269462846FFF77EF9E0
:101500000820CDE90004694628460294FFF776F9E1
:10151000134D1248C5E900048020C5E902402C6142
:101520006C61AC612846EC61FFF7F0F808B1FEF79A
:1015300099FEF5630022114626206E62FFF7C4FA79
:101540002620FFF7B3FA05B0F0BD000000380140D7
:101550000010024000080140004400406C000240BE
:101560004803002090F84230202B01D00220704721
:1015700021B11AB10023036300F094BD012070472C
:1015800090F84230202B01D00220704721B11AB1CF
:101590000023036300F0CEBD012070472DE9F04128
:1015A000054600682749284E884227D1274C2848FD
:1015B000617822784254491CC9B20844617010F81D
:1015C000011C0A291AD110F8020C0D2816D1204945
:1015D00020A000F085FE30684006FCD51C494FF481
:1015E00080774FF6FF733A4601F52D7000F043F80F
:1015F0000020607039461648FEF7AFFD2868B042FB
:1016000018D11A4C04F16A00A188628839B10844E3
:10161000A11DFEF789FDA0886188084403E0A11D93
:10162000FEF782FD6088A0806188A01DFEF795FD11
:1016300001202070BDE8F041012204490C48FFF769
:101640009FBF00000038014000440040050000201A
:101650004C000020757361727431207265632062E2
:101660007566662069732025730D0A004C01002001
:10167000B802002070472DE9F843044690F8410075
:101680001F4616460D46202802D00220BDE8F883EA
:101690007DB176B100206064212084F84100FFF71D
:1016A000A7F9A6848046E684A068B0F5805F02D0E2
:1016B00003E00120EAE7206910B12E4600250EE084
:1016C00000260CE08021204600F04FFDA0B9AEB10D
:1016D00016F8010B21684860E08C401EE084E08C25
:1016E00043464FF0000200970028EBD14FF0400135
:1016F000204600F03AFD30B10320C7E735F8020B71
:10170000C0F30800E6E7202084F841000020BDE790
:101710007047FEE770B51A4D002408212846FFF7F0
:101720005DF930B91420FFF757F801241420FFF7B2
:1017300053F810212846FFF751F930B91420FFF76C
:101740004BF802241420FFF747F820212846FFF722
:1017500045F930B91420FFF73FF803241420FFF7B0
:101760003BF840212846FFF739F930B91420FFF73C
:1017700033F804241420FFF72FF8204670BD000032
:10178000000C0140FEB50024164800940194144951
:101790000294016089158160012505730475022694
:1017A00006614FF460214460C161FEF7DBFD08B1C2
:1017B000FEF758FDCDE9004569460A480294FEF758
:1017C00053FD08B1FEF74EFDCDE9005669460548C8
:1017D000FEF74AFD002801D0FEF744FDFEBD0000E3
:1017E000002401401C000020094808B5416941F06F
:1017F000010141614069002200F0010000901146A2
:101800001020FFF761F9BDE808401020FFF74EB93E
:10181000001002402DE9F04186B0002429480094D0
:10182000019402940394816941F0100181618169FE
:1018300001F010010491816941F020018161816909
:1018400001F020010491816941F004018161816905
:1018500001F004010491816941F00801816180690E
:10186000194F00F0080004900022F0213846FFF7DD
:10187000BAF8DFF858804FF44076002231464046EF
:10188000FFF7B1F8F0200125CDE900050320CDE9EF
:10189000024069463846FEF7B1FF7B208DE83100F3
:1018A00069464046FEF7AAFF11200096CDE90104E3
:1018B0000220039069464046FEF7A0FF06B0BDE84F
:1018C000F08100000010024000080140000C0140BF
:1018D0000C4810B50A4901604FF4165141600021CF
:1018E00081600C22C160C0E904128161C161FFF70F
:1018F00083FD002803D0BDE81040FEF7B3BC10BD47
:1019000000380140B80200200C4810B50A490160B7
:101910004FF416514160002181600C22C160C0E982
:1019200004128161C161FFF767FD002803D0BDE8A3
:101930001040FEF797BC10BD00440040000300209B
:10194000FEE7FEE710B5002000F098FC05221549DF
:10195000302000F07AFC052212492A2000F075FCA4
:101960000F21202000F0A2FC0121212000F09EFC8C
:101970000021252000F09AFC2021312000F096FC67
:101980000121222000F092FC1A21242000F08EFC7C
:10199000FF21E22000F08AFCBDE81040012000F0A9
:1019A0006DBC00000000002070B50024002120461E
:1019B00000F0D6F80025002000F03CF96D1CEDB2D7
:1019C000802DF8D3641CE4B2082CEFD370BD000066
:1019D00010B5064C012211022046FFF704F82046FC
:1019E0000122BDE810405102FEF7FDBF000C01408E
:1019F0002DE9F047144E002407464FF080084FF4BD
:101A00000079B51528FA04F23A4049463046FEF707
:101A1000EAFF012229463046FEF7E5FF002229466B
:101A20003046FEF7E0FF641CE4B2082CEAD3012242
:101A300029463046FEF7D7FF29463046BDE8F04735
:101A40000022FEF7D0BF0000000C014070B501225B
:101A50000B4D540221462846FEF7C5FF012216020F
:101A600031462846FEF7BFFF002221462846FEF7F2
:101A7000BAFF31462846BDE870400022FEF7B3BFEA
:101A8000000C014070B50A4D4FF40074002221464D
:101A90002846FEF7A8FF012211022846FEF7A3FF01
:101AA00021462846BDE870400122FEF79CBF000099
:101AB000000C014010B500204FF47A720021491C3F
:101AC0009142FCD3401C9042F8D3FFF781FFAE2037
:101AD00000F09FF8D52000F09CF8802000F099F8E5
:101AE000A82000F096F83F2000F093F8D32000F0F3
:101AF00090F8002000F08DF8402000F08AF8A12036
:101B000000F087F8C82000F084F8DA2000F081F8AF
:101B1000122000F07EF8812000F07BF8CF2000F04A
:101B200078F8D92000F075F8F12000F072F8DB2089
:101B300000F06FF8302000F06CF8A42000F069F895
:101B4000A62000F066F88D2000F063F8142000F065
:101B500060F8AF2000F05DF8BDE81040FFF724BF4B
:101B600010B50C4640F0B00000F053F8102040EAE9
:101B7000141000F04EF804F00F00BDE8104000F023
:101B800048B800002DE9F0410746CE004000083E6D
:101B9000801E15464FF0FF38F1B2C0B2FFF7E0FFEC
:101BA0001148002400EB05152819A0F5805090F885
:101BB000000E00F03FF8641CE4B2082CF4D308EBEC
:101BC0004700F1B2C0B2FFF7CBFF00242819A0F5FF
:101BD000805090F8080E00F02DF8641CE4B2082C38
:101BE000F4D3BDE8F08100000C2500082DE9F04198
:101BF00015460E460746002406E03019C1B23846A5
:101C0000FFF7C0FF641CE4B22A5D002AF5D1BDE8ED
:101C1000F08110B50446FFF719FF7820FFF7E8FEC2
:101C20000020FFF7E5FE2046FFF7E2FEBDE810408A
:101C3000FFF728BF10B50446FFF708FF7820FFF72D
:101C4000D7FE4020FFF7D4FE2046FFF7D1FEBDE8C7
:101C50001040FFF717BF704701210148FEF7BEBED5
:101C6000000C014002210148FEF7B8BE000C014003
:101C700010B50446002000F009FB204600F00AF8E9
:101C8000FF2000F007F80446012000F0FFFA20468C
:101C900010BD00002DE9F0410024064625464FF016
:101CA000800800BF28FA05F707EA060000F0F6FAF8
:101CB000012000F00DFBFFF7D5FF012800D13C43C8
:101CC000002000F005FB6D1CEDB2082DEAD3204684
:101CD000BDE8F0817047000010B501462022A02029
:101CE00000F0B3FA002000F0C9FA0E21202000F025
:101CF000DDFA012000F0C2FAFFF7AEFF0128FBD0A9
:101D00000720FFF7B5FF0446C00609D5FF21E120F3
:101D100000F0CCFA2146272000F0C8FA102010BDB0
:101D2000A006FCD52146272000F0C0FA03A201211D
:101D30000220FFF75BFF202010BD000054585F4FCA
:101D40004B000000FEF75ABE30B593B0282168461C
:101D5000FEF703FA14210AA8FEF7FFF90024012177
:101D60000F9410940804CDE9001011941294029479
:101D700002250491CDE907504FF4E0100990684620
:101D8000FFF726F808B172B6FEE70F20CDE90A0585
:101D90004FF48060CDE90C4002210AA80E94FEF7B2
:101DA0003BFF08B172B6FEE70FA80F951194FEF73E
:101DB000BDFE002801D072B6FEE713B030BD7047FB
:101DC00010B5406A0021C185C184FFF7DEF910BD5E
:101DD00070B5446A2068406994F84110C0F3C0109F
:101DE0000025212904D118B1E584204600F08EF8A1
:101DF0002068406994F84210C0F38010222904D171
:101E000018B1E585204600F05AF8606C40F01000EB
:101E100060642046FFF7B9F970BD10B50146406A0D
:101E2000096809684FF0000289062ED4C28501684E
:101E30000C3151E8003F23F4807341E80034002C5A
:101E4000F5D10168143151E8003F23F0010341E866
:101E50000034002CF5D10168143151E8003F23F023
:101E6000400341E80034002CF5D1202180F84210D5
:101E7000016B012909D101680C3151E8003F23F0C1
:101E8000100341E80034002CF5D14263016B0129B5
:101E900002D0FFF783FB10BD818DFFF73DF910BD28
:101EA00010B5406A01214163016B012902D0FFF79F
:101EB000E1FB10BD818D4908FFF72EF910BD0168C7
:101EC0000C3151E8002F22F4907241E80023002BDE
:101ED000F5D10168143151E8002F22F0010241E8E8
:101EE0000023002BF5D1016B012909D101680C31C8
:101EF00051E8002F22F0100241E80023002BF5D119
:101F0000202180F8421000210163704701680C31E4
:101F100051E8002F22F0C00241E80023002BF5D148
:101F2000202180F84110704708B590F8421022290E
:101F300001D0022008BD82684FF480539A4201D13B
:101F4000016921B1816A9A421BD04AB10AE0026854
:101F5000816A5268C2F308020A80816A891C08E01B
:101F6000026972B10268526802F07F020A70816AE7
:101F7000491C8162C18D491E0904090CC18503D029
:101F80001BE002685268F1E70168CA6822F020028B
:101F9000CA600168CA6822F48072CA6001684A692E
:101FA00022F001024A61202180F8421000214163A1
:101FB000026B012A03D0FFF7F1FA002008BD01638C
:101FC00001680C3151E8002F22F0100241E8002393
:101FD000002BF5D101680A68D20602D50A68496863
:101FE0000091818DFFF798F8E7E7000070B504468F
:101FF00000680169E26821F44051114301612169DF
:10200000A0680843616908432168CA6841F20C630B
:102010009A430243CA6020684169A26921F4407171
:10202000114341611E492068884202D1FEF79AFEA1
:1020300001E0FEF787FE00EBC00101EB00126068D3
:1020400064218000B2FBF0F3B3FBF1F36FF01806EC
:102050007343B2FBF0F5B2FBF0F605EB83053223D8
:1020600003EB0515B5FBF1F5B6FBF1F605F0F00550
:1020700005EB0615B2FBF0F6B2FBF0F0B0FBF1F0A9
:102080006FF01802504306EB800003EB0010B0FB2A
:10209000F1F0216800F00F002844886070BD000056
:1020A0000038014038B5816204468285002013461D
:1020B0006064222284F84220E56B1B4AAA62E56B29
:1020C0001A4AEA62E56B1A4A2A63E26B50630A46CF
:1020D0002168E06B091DFEF747FB20680168406836
:1020E0000090206948B120680C3050E8001F41F48E
:1020F000807140E80012002AF5D12068143050E8C1
:10210000001F41F0010140E80012002AF5D12068CB
:10211000143050E8001F41F0400140E80012002A4E
:10212000F5D1002038BD00001B1E0008A11E0008CC
:10213000D11D000881628285C2850021416422216F
:1021400080F84210016921B10168CA6842F48072C6
:10215000CA6001684A6942F001024A610068C168C8
:1021600041F02001C160002070472DE9F041984600
:1021700017460E460446069D27E0681C25D02DB163
:10218000FEF736FCA0EB0800A8421ED920680C30F0
:1021900050E8001F21F4D07140E80012002AF5D168
:1021A0002068143050E8001F21F0010140E80012BF
:1021B000002AF5D1202084F8410084F84200002054
:1021C00084F840000320BDE8F0812068006836EA0A
:1021D000000004D00020B842CFD00020F3E7012057
:1021E000F9E700000148FEF7D1BF0000B802002067
:1021F00038B5124C20680168C943C9061CD401686F
:10220000406800902046FEF788FF2068016840681B
:102210000B48006840680B4CC0F1640060800748C0
:10222000FFF7BCF90548FEF7B1FF6422A11DBDE828
:1022300038400248FFF796B938BD0000000300207F
:10224000480300204C010020FEE770B50446154607
:102250000E46002000F01AF82046FFF71BFD002470
:1022600004E0305DFFF716FD641CE4B2AC42F8D325
:10227000BDE87040012000F009B80000024680214E
:102280000148FEF7B0BB00000008014002464021B3
:102290000148FEF7A8BB00000008014002461021DB
:1022A0000148FEF7A0BB00000008014070B50446DD
:1022B0000D460020FFF7EAFF2046FFF7EBFC28461B
:1022C000FFF7E8FCBDE870400120FFF7DFBF00002A
:1022D000024620210148FEF786BB000000080140AD
:1022E0000FB4054B10B503A9044A029800F027F873
:1022F00010BC5DF814FB0000152400081800002035
:102300000907090E002804DB00F1E02080F8001422
:10231000704700F00F0000F1E02080F8141D7047B6
:1023200002E008C8121F08C1002AFAD1704770479E
:10233000002001E001C1121F002AFBD170472DE9E6
:10234000F84F9946924688460546002706E025281C
:102350000AD051464A4690476D1C7F1C28780028B9
:10236000F5D13846BDE8F88F002315F8011F18464F
:102370002E2915D115F8011F04232A290DD06FF03D
:102380002F022978A1F13004092C09D800EB800034
:1023900002EB400008446D1CF3E758F8040B6D1C79
:1023A0002A78002ADDD0632A07D0732A0FD010467E
:1023B00051464A4690477F1C2AE018F8042B8DF8B6
:1023C000002000218DF801106E46012103E058F82D
:1023D000046B4FF0FF315A074FF0000401D409E0BD
:1023E000641C84420BDA8C42FADB325D002AF7D19E
:1023F00005E0641C8C42FCDB305D0028F9D12744E9
:1024000004E016F8010B51464A469047641EF8D284
:102410006D1CA3E713B54FF6FF730122694602480E
:10242000FFF729F900981CBDB802002088B0FEF71C
:10243000EDFAFFF789FCFFF7EDF9FFF7D5F9FFF7A4
:1024400047FAFFF761FAFFF79DF9FFF733FBFFF754
:1024500079FA0FA0FFF744FF012111A20846FFF708
:10246000C5FBFDF7DFFE20216846FDF776FE00255F
:10247000FFF750F9044600F017F88DF80040684661
:10248000FFF72AFC3220FEF7A7F98DF80050EFE79E
:1024900073797374656D206973206F6B2100000080
:1024A0006F6B31210000000010B5FFF733F90328EE
:1024B0000ED004280ED001280ED002280ED00028FD
:1024C0000ED108A20421BDE810400120FFF78EBB09
:1024D00006A2F7E707A2F5E708A2F3E709A2F1E7EA
:1024E00010BD00006E6F6368616E670058726967A7
:1024F00068740000586C6566740000005962656677
:102500006F72650059616666657200000000000028
:10251000000000000000000000000000000000F8C3
:1025200000000000000000333000000000100C0626
:10253000100C0600000000000000000040C07840C1
:10254000C0784000043F04043F040400007088FC8D
:1025500008300000001820FF211E0000F008F000E5
:10256000E018000000211C031E211E0000F0088856
:10257000700000001E2123241927211010160E00C0
:10258000000000000000000000000000000000E06B
:102590001804020000000007182040000002041880
:1025A000E00000000040201807000000404080F0DC
:1025B000804040000202010F01020200000000F012
:1025C000000000000101011F0101010000000000E6
:1025D0000000000080B0700000000000000000005B
:1025E00000000000000101010101010100000000E4
:1025F000000000000030300000000000000000007B
:1026000080601804006018060100000000E0100857
:102610000810E000000F102020100F00001010F82C
:10262000000000000020203F20200000007008086B
:1026300008887000003028242221300000300888EB
:10264000884830000018202020110E000000C02013
:1026500010F8000000070424243F240000F8088834
:10266000880808000019212020110E0000E01088C1
:1026700088180000000F112020110E0000380808F3
:10268000C83808000000003F000000000070880803
:1026900008887000001C222121221C0000E0100884
:1026A0000810E0000000312222110F00000000C0DD
:1026B000C00000000000003030000000000000807A
:1026C000000000000000806000000000000080406A
:1026D0002010080000010204081020004040404083
:1026E00040404000040404040404040000081020D6
:1026F000408000000020100804020100007048081B
:102700000808F0000000003036010000C030C82882
:10271000E810E0000718272423140B000000C0383D
:10272000E0000000203C23020227382008F88888B7
:1027300088700000203F202020110E00C0300808C3
:1027400008083800071820202010080008F808089A
:102750000810E000203F202020100F0008F8888893
:10276000E8081000203F20202320180008F888885F
:10277000E8081000203F200003000000C0300808D7
:102780000838000007182020221E020008F8080060
:102790000008F808203F210101213F20000808F827
:1027A000080800000020203F20200000000008084A
:1027B000F8080800C08080807F00000008F888C00A
:1027C00028180800203F20012638200008F80800BB
:1027D00000000000203F20202020300008F8F800F2
:1027E000F8F80800203F003F003F200008F830C004
:1027F0000008F808203F200007183F00E0100808F4
:102800000810E0000F10202020100F0008F8080822
:102810000808F000203F210101010000E010080835
:102820000810E0000F18242438504F0008F888885A
:1028300088887000203F2000030C3020007088083A
:10284000080838000038202121221C00180808F848
:10285000080818000000203F2000000008F80800C9
:102860000008F808001F202020201F00087888009A
:1028700000C83808000007380E010000F80800F80A
:102880000008F800033C0700073C030008186880B4
:102890008068180820302C03032C30200838C8002A
:1028A000C83808000000203F200000001008080879
:1028B000C83808002038262120201800000000FE1B
:1028C000020202000000007F40404000000C30C0C7
:1028D00000000000000000010638C00000020202F3
:1028E000FE000000004040407F00000000000402A5
:1028F00002020400000000000000000000000000D0
:1029000000000000808080808080808000020204BF
:1029100000000000000000000000000000008080B7
:10292000808000000019242222223F2008F8008025
:1029300080000000003F112020110E0000000080E8
:1029400080800000000E1120202011000000008077
:102950008088F800000E112020103F2000008080A9
:1029600080800000001F222222221300008080F0BD
:10297000888888180020203F2020000000008080E8
:1029800080808000006B94949493600008F800802D
:1029900080800000203F210000203F200080989888
:1029A000000000000020203F2020000000000080E8
:1029B0009898000000C08080807F000008F8000028
:1029C00080808000203F24022D302000000808F87D
:1029D000000000000020203F202000008080808038
:1029E00080808000203F20003F20003F80800080CA
:1029F00080800000203F210000203F2000008080D8
:102A000080800000001F202020201F008080008088
:102A10008000000080FFA12020110E000000008037
:102A200080808000000E112020A0FF808080800028
:102A30008080800020203F21200001000000808055
:102A4000808080000033242424241900008080E04A
:102A5000808000000000001F202000008080000017
:102A600000808000001F202020103F2080808000F8
:102A70000080808000010E30080601008080008008
:102A8000008080800F300C030C300F00008080002D
:102A9000808080000020312E0E3120008080800058
:102AA0000080808080818E70180601000080808008
:102AB000808080000021302C2221300000000000A6
:102AC000807C020200000000003F40400000000047
:102AD000FF00000000000000FF0000000002027C78
:102AE000800000000040403F00000000000601019F
:102AF00002020404000000000000000001020203C2
:102B00000405060708090A0B0C0D0E0F1010000033
:102B1000000000000000010203040607080900008D
:102B20000000010203040000482B00080000002000
:102B30001C00000020230008642B00081C0000205B
:102B40007407000030230008F0F0F0F0F0000000FF
:102B50000100000010000000000000000024F4004C
:042B60000000000071
:04000005080000ED02
:00000001FF
