:020000040800F2
:10000000A03D00209D010008E1360008973300085C
:1000100001360008E1150008154400080000000042
:1000200000000000000000000000000005010008C2
:10003000071800080000000049010008953C00086E
:10004000B7010008B7010008B7010008B7010008B0
:10005000B7010008B7010008B7010008B7010008A0
:10006000B7010008B7010008B7010008B701000890
:10007000B7010008B7010008B7010008B701000880
:10008000FD150008B7010008B7010008B701000816
:10009000B7010008B7010008B7010008B701000860
:1000A000B7010008B7010008B7010008B701000850
:1000B0003D3E0008B7010008B7010008B70100087D
:1000C000B7010008B7010008B7010008B701000830
:1000D000B7010008B1430008BD430008B70100089C
:1000E000B7010008B7010008B7010008DFF810D019
:1000F00000F006FF004800471D510008AFF30080E4
:10010000A03D0020224B19680868B0E8F00F80F38A
:100110000988BFF36F8F4FF0000080F311884EF015
:100120000D0E70470000000006480068006880F36C
:10013000088862B661B6BFF34F8FBFF36F8F00DFE1
:1001400000BF00BF08ED00E0EFF30980BFF36F8F41
:100150000F4B1A6820E9F00F106008B54FF05000FF
:1001600080F31188BFF34F8FBFF36F8F06F0F0F964
:100170004FF0000080F31188BDE808401968086856
:10018000B0E8F00F80F30988BFF36F8F704700BFAE
:10019000E8000020EFF30580704700000648804724
:1001A00006480047FEE7FEE7FEE7FEE7FEE7FEE75C
:1001B000FEE7FEE7FEE7FEE7393D0008ED00000838
:1001C0002DE9F05F0546002092469B46884606468C
:1001D000814640241BE0284641464746224600F01F
:1001E00020F853465A46C01A914110D3114618467A
:1001F000224600F077FD2D1A67EB01084F46224694
:100200000120002100F06EFD17EB00094E41201E79
:10021000A4F10104DFDC484631462A464346BDE8E6
:10022000F09F202A04DB203A21FA02F000217047D7
:1002300021FA02F3D040C2F120029140084319464E
:10024000704740EA01039B0703D009E008C9121F69
:1002500008C0042AFAD203E011F8013B00F8013B80
:10026000521EF9D27047D2B201E000F8012B491EAC
:10027000FBD270470022F6E710B513460A46044643
:100280001946FFF7F0FF204610BD30B505462A4657
:100290000B4612F8010B13F8014B08B1A042F8D03D
:1002A0001CB1002802D06D1CF1E7284630BD421C6D
:1002B00010F8011B0029FBD1801A7047034611F882
:1002C000012B00F8012B002AF9D1184670470000D5
:1002D0000FB400B58DB010A909900B9000914FF0AC
:1002E000FF300A9000200C900548069005480790C2
:1002F0006A4609A80F9900F01DFD0DB05DF814FBCA
:10030000510D00086F0D00082DE9FF4F087883B0EC
:100310009946FF2805D0491C2D2804D00024002030
:1003200008E000200BE00124F9E700EB800003EB7C
:100330004000491C0B78FF2BF7D104B14042002349
:100340000293147819461D462D2C01D02B2C04D174
:10035000521C2D2C13D000240294AA461478FF2C92
:100360000FD00A25A3FB057801FB05814FF0000C97
:1003700003FB0C11521CE3194AEB0101EEE70124C7
:10038000EAE7814453EA010002D019F5C87F06DA92
:1003900003980021C0E9001107B0BDE8F08F0025E7
:1003A000AE4E2F46DFF8B882184600F085FDCDE945
:1003B0000001B9F1000002DAC9F1000400E00446CE
:1003C0000023A74A1AEB030B42EB045A12E0E007A2
:1003D00007D02A4633463846414600F0C0FA074661
:1003E00088462A4633461046194600F0B8FA0546B4
:1003F0000E466410002CEAD1DDE90001B9F1000FCE
:100400005A46534606DA00F01CFB3A46434600F0D3
:1004100018FB05E000F0A3FA3A46434600F09FFAC5
:10042000029A0AB181F00041039AC2E90001B3E7E0
:100430002DE9FF4F1F468DB0D7E901464FF0FF3839
:100440002E2045464FF000090B90B9696D1C0E989F
:100450008847396A824688470028F6D1BAF1FF3FBB
:100460000AD024F4D064002E11DDBAF12B0F08D08D
:10047000BAF12D0F0BD102E0404611B08DE744F4E4
:100480008064B9696D1C0E9888478246761E69465D
:10049000600501D52D2000E02B208DF8000001F132
:1004A000010B0DF1200809E0B9696D1C0E98884711
:1004B00082460F9844F40074761E0560002E02DD1B
:1004C000BAF1300FF0D00B998A453ED144F0800448
:1004D00006E00F99681CA9F1010944F40074086052
:1004E000B9696D1C761E0E98884782463028F0D078
:1004F0002BE00B998A4505D1200603D444F08004F3
:10050000761E18E0504604F0E3F808B30DF113012D
:10051000761E44F400748B4508D2AAF130000BF823
:10052000010B200607D5A9F1010003E0200602D443
:1005300009F101008146A00502D50F99681C0860E9
:10054000B9696D1C0E9888478246002ED1DC53E0B5
:10055000002E51DDBAF1650F02D0BAF1450F4BD133
:10056000A00549D5B9696D1C24F44074761E0E9817
:1005700088478246002E0CDD2B2804D0BAF12D0FBF
:1005800007D144F48074B9696D1C0E98884782467F
:10059000761EE00501D52D2100E02B2108F8011B76
:1005A000CDF82C8021E00DF12901761E44F4007471
:1005B00088450CD2AAF1300010F0FF0088F8000046
:1005C00002D10B99884509D908F1010806E0E00538
:1005D00001D5244801E042F20F708146B9696D1CD3
:1005E0000E98884782460F980560002E04DD50461D
:1005F00004F06EF80028D6D1F9690E988847FF20DC
:100600008BF8000088F800000020069007904B4609
:100610006A4608A906A8FFF777FEA00502D46FF086
:1006200001002AE714F0240F0AD0E00714D1DDE915
:1006300006123868031D3B600068C0E900120BE039
:10064000DDE9060100F01CFB0146E00704D1386833
:10065000021D3A600068016028460EE70000144061
:100660000000F03FF1D8FFFFF0B480EA0102D40FA0
:100670004200B2EB410F02D20246084611464A0040
:1006800042D0C30DDDB2C1F3C752AD1A202D35DA09
:10069000C1F3160141F4000204B15242C5F1200633
:1006A00002FA06F12A411044B3EBD05F23D0C4B163
:1006B000012DA0EBC35009DCF0BC4FF0004202EA70
:1006C000C352DBB200F5000000F06BBB400000F14C
:1006D000807000EBC350A0F1807040EAD1704900F7
:1006E00009E0490841EAC071A0EBC35000F50000E1
:1006F000400800EBC350F0BC00F04ABB614201224D
:1007000002EB4101001BF6E7F0BC704781F00041AD
:10071000AAE780F00040A7E780EA010210B502F0E6
:100720000043400022D04A001FD0010E01EB1261AD
:10073000C0F35600C2F3560240F4000042F4000237
:10074000A0FB022000047F39140400D0401C50EAB2
:10075000124001D44000491EC2B20C0604EBD01076
:10076000401C4008802A02D003E0002010BD20F089
:100770000100002900DA0020184310BD30B480EADF
:10078000010202F0004530F0004221F0004013D099
:1007900090B1C30DD40DC2F31601C0F31600E41AD4
:1007A00041F4000140F400027D34914201D3641C05
:1007B00000E04900002C02DA30BC002070474FF402
:1007C00000000023914201D3891A034340084FEAF5
:1007D0004101F7D151B1914202D14FF0004105E002
:1007E00002D24FF0010101E06FF0010103EBC450B0
:1007F000284430BC00F0CCBA420005D0C0F3C75248
:100800005242914201DC0020704700EBC15070471A
:100810002DE9FE4F804681EA0300C00F0C46009090
:1008200021F0004123F00045B8EB0200A94105D2B8
:100830004046214690461C460B46024623F00040A7
:10084000104347D0270DC7F30A00C3F30A510290A3
:10085000401A019040286BDAC3F3130040F4801B68
:100860000098924620B10023D2EB030A63EB0B0BF6
:1008700001985946C0F14002504600F033FA06464E
:100880000D4650465946019A00F03BFA10EB08001D
:100890006141002487EA115284EAE7731A4340D089
:1008A000009A62B3019A012A4FEA075215DC001B35
:1008B00061EB02014FF0004202EA0752CDE900422B
:1008C000001C41F5801132462B4600F0A7FA03B018
:1008D000BDE8F08F40462146F9E7001B61EB0201BD
:1008E000001C41F5801300185B412018A2F5001789
:1008F00047EB030140EAD570B6196D4111E06D0870
:100900004FEA360645EAC0754FEA0752001B61EB15
:100910000201001C41F5801149084FEA300000191E
:10092000514132462B4603B0BDE8F04F00F067BAA4
:100930000098012240000023D0EB020263EBE07339
:10094000009821464FEAE074B8EB000061EB040127
:10095000E9E783F000435BE781F0004158E72DE9C8
:10096000FE4F81EA030404F0004421F000410094AA
:100970004FF0000B23F0004350EA01045ED052EA2E
:1009800003045BD0C3F30A54C1F30A552C44A4F208
:10099000F3340194A0FB0254C1F3130141F480111C
:1009A000C3F3130343F4801301FB024400FB034E23
:1009B000840A970A44EA815447EA8357A4FB0768EC
:1009C00002958D0A05FB07854FEA932C04FB0C5416
:1009D0002705029D4FEA065847EA1637B5EB08058A
:1009E0006EEB070C870E920E47EA811742EA8312DC
:1009F000A7FB0201B6EB0B0164EB00042B0D43EAED
:100A00000C335E1844EB1C50DA465146E7FB0201FA
:100A1000C5F313044FEA0B3343EA14534FEA04328D
:100A2000019C43EA0603A4F10C040294009CCDE966
:100A300000B400F0F3F903B0BDE8F08F00200146E8
:100A4000F9E72DE9F04D81EA030404F0004B21F0B1
:100A5000004514464FF0000A23F0004150EA050219
:100A600020D054EA01021DD0C5F30A570246C5F34F
:100A70001303C1F31300C1F30A5640F4801543F485
:100A80008013A7EB0608101BD64608F2FD3873EB5F
:100A9000050002D308F1010801E092185B41B8F1AA
:100AA000000F03DA00200146BDE8F08D00204FF46E
:100AB0008011064684460EE0171B73EB050705D32D
:100AC000121B63EB050306434CEA010C49084FEA8D
:100AD000300092185B4150EA0107EDD152EA030061
:100AE00012D082EA040083EA0501084305D0101BF6
:100AF000AB4106D20122002306E000224FF0004362
:100B000002E06FF0010253101AEB06004CEB0851A3
:100B100010EB0A0041EB0B01BDE8F04D00F06FB99E
:100B200070B521F0004303430CD0C1F30A550024F3
:100B3000D5EB040564EB0403D617AD1AB34102DB11
:100B40000020014670BD201841EB025170BD962374
:100B50000022114600F025B90EB5C10F80EAE07001
:100B60000844CA07002140F233438DE80E000A46CC
:100B70000B4600F053F903B000BD0EB540F233410F
:100B800002910021CDE900110A460B4600F046F91A
:100B900003B000BD20F00040C10DC0F3160040F4CA
:100BA00000007F2901DA00207047962903DCC1F19B
:100BB0009601C840704796398840704770B5C1F3B8
:100BC0000A5201F000450024C1F3130140F2FF3343
:100BD00041F480119A4201DA002070BD40F23343A3
:100BE0009A42A2F2334203DC5242FFF71AFB00E0C2
:100BF00090402C43F1D0404270BD00F0004230F0F4
:100C000000400AD0C10D01F56071C0F3160042EA40
:100C10000151C20840071143704700200146704748
:100C200030B5041E71F1000404DB4FF00044404273
:100C300064EB0101141E73F1000405DB1C464FF048
:100C40000043524263EB04038B4208BF824230BD33
:100C500030B5041E71F1000404DB4FF00044404243
:100C600064EB0101141E73F1000405DB1C464FF018
:100C70000043524263EB0403994208BF904230BDE7
:100C800001F0004330B421F0004150EA010206D0E7
:100C90000A0DA2F56072C1F31301002A02DC30BC18
:100CA00000207047440F44EAC104C100E01830BC82
:100CB00000EBC25000F06CB830B50B460146002086
:100CC0002022012409E021FA02F59D4205D303FA0E
:100CD00002F5491B04FA02F52844151EA2F101028F
:100CE000F1DC30BD202A04DB203A00FA02F10020BA
:100CF00070479140C2F1200320FA03F3194390405A
:100D00007047202A06DBCB17203A41FA02F043EA6B
:100D1000E07306E041FA02F3D040C2F120029140B4
:100D200008431946704700000268114413780160B7
:100D300018467047D160044951610449116200218D
:100D40001161114600F0F4B8290D0008250F0008C4
:100D5000426842B1016811F8013B23B1521EC0E95B
:100D60000012184670470121C160881E7047426812
:100D70005AB1C368016843B983688B4205D0491EE4
:100D8000521CC0E90012002070474FF0FF3070473E
:100D90000029A8BF7047401C490008BF20F001008F
:100DA000704710B4B0FA80FC00FA0CF050EA01046D
:100DB00004BF10BC704749B1CCF1200421FA04F4FF
:100DC00011FA0CF118BF012121430843A3EB0C01D8
:100DD000CB1D4FEA00614FEA102042BF002010BC3B
:100DE000704700EBC35010440029A4BF10BC7047EB
:100DF000401C490008BF20F0010010BC704710B52E
:100E0000141E73F1000408DA401C41F1000192182D
:100E10005B411A4301D120F0010010BD2DE9F04DD6
:100E200092469B4611B1B1FA81F202E0B0FA80F22B
:100E300020329046FFF756FF04460F4640EA0A006C
:100E400041EA0B0153465A46084313D0114653EA70
:100E5000010019D0C8F140025046FFF7E2F90546FB
:100E60000E46504659464246FFF73CFF084305D020
:100E7000012004E020463946BDE8F08D00200543FE
:100E800046EAE0762C4337430A986305E40AA0EB70
:100E900008000022FD0A44EA47540A3002D5002027
:100EA0000146E9E7010510196941DDE90845001926
:100EB0006941BDE8F04DA2E70EB540F2334202921F
:100EC0000022CDE900221346FFF7A8FF03B000BDC2
:100ED000C1F30A52C1F3130140F2FF3341F4801110
:100EE0009A4202DA00200146704740F233439A42A8
:100EF000A2F2334202DC5242FFF793B9FFF7F2BE8F
:100F0000064C074D06E0E06840F0010394E8070056
:100F100098471034AC42F6D3FFF7ECF8B0760008EF
:100F2000D0760008C0B24FF4F05100F099B900003B
:100F30002DE9F34F8BB04FF0000801F10C000C4687
:100F40004FF0010B46460DF1080A0190626901213C
:100F500001989047051E2DD0252D2CD0216A884759
:100F6000C0B16269012101989047216A8847002831
:100F7000F7D1411E62690198904700E0761CA16993
:100F80000B988847216A88470028F7D1E1690B98B8
:100F90008847DBE7A1690B9888470746A84201D13B
:100FA000761CD3E7E1690B9888477F1C02D1B8F122
:100FB000000F6FD047E1002762693D46394601982E
:100FC00090472A2804D162690121019890470125A0
:100FD000DFF888926269012101989047A0F1300101
:100FE0000A290AD24F45E5DC07EB870100EB4107F0
:100FF000303FDFD445F01005ECE7E90601D46FF08F
:1010000000476C280AD04C2814D0682815D06A28CC
:101010000DD074281CD07A281AD01DE062690121F5
:10102000019890476C2802D045F0040514E045F083
:1010300002050DE045F020050AE0626901210198F2
:101040009047682802D045F0080505E045F40065A2
:101050006269012101989047C4E9015765283DD094
:1010600019DC58287AD00CDC452837D004DC252838
:1010700026D0412831D131E046282FD047282CD125
:101080002CE05B2877D0612828D063287CD06428A6
:1010900023D15AE0D1E06F2848D008DC66281DD063
:1010A00067281BD0692821D06E2816D127E0702828
:1010B00045D0732868D0752847D078280DD14DE0E9
:1010C000A1690B988847054625283FF469AFE16977
:1010D0000B9888476D1C3FF46AAFB4E023466A461C
:1010E0006FF001000B99FFF7A3F99FE045F0400076
:1010F0006060A80723464FF0000236D43EE0E807C0
:101100007FF447AF2068011D21600068290501D5E3
:1011100006701BE7290701D5068017E7A90703D545
:10112000F117C0E9006111E706600FE745F04000E4
:101130006060A80723464FF0080216D41EE040F670
:101140000E0125EA0100606016E045F04000606095
:10115000A80723464FF00A0207D40FE045F04000ED
:101160006060A80708D5234610226FF001000B9994
:10117000AFF300805AE007E0234610226FF0010031
:101180000B99AFF3008051E04FF000094F464B46FA
:10119000632802D05B2807D041E02079C00601D443
:1011A0000120A06001273AE062690121019890477F
:1011B0005E2805D14FF001096269494601989047C0
:1011C000216939B900210A46534643F82120491CB8
:1011D0000829FADBB0B3216969B9C11700EBD16204
:1011E00053110AEB830122F01F02821A01200B68BF
:1011F000904003430B6062690121019890475D288C
:10120000E8D1B9F1000F09D00020514651F8202053
:10121000D24341F82020401C0828F7DB02AB2246CD
:1012200000976FF001000B99AFF3008000280CDAF3
:10123000401C08D1BBF1000F05D04FF0FF300DB0BE
:10124000BDE8F08FFFE74046F9E7E90701D108F173
:10125000010806444FF0000B78E60000CCCCCC0C23
:101260007F2801D9002208E0064A02EB5002C0079D
:10127000127800D1120902F00F02012090400840BC
:10128000704700008075000870B58C1810F8015B7D
:1012900015F0070301D110F8013B2A1106D110F80F
:1012A000012B03E010F8016B01F8016B5B1EF9D113
:1012B0002B0705D40023521E0DD401F8013BFAE799
:1012C00010F8013BCB1A921C03E013F8015B01F804
:1012D000015B521EF9D5A142D8D3002070BD000099
:1012E00070B5044600688168C943C90717D1816891
:1012F00021F00101816001F013F805460AE000BF0A
:1013000001F00EF8401B022804D920688068C04311
:10131000C00706D020688068C043C007F0D0002016
:1013200070BDA06A40F01000A062E06A40F00100C9
:10133000E062012070BD0000F8B50026044600966A
:1013400000688168C943C9072DD0816841F0010157
:101350008160164816490068B0FBF1F000E0401EBD
:1013600000900028FBD100F0DBFF054616E000BF2F
:1013700000F0D6FF401B022810D920688068C043C7
:10138000C0070BD0A06A40F01000A062E06A40F0F5
:101390000100E06284F824600120F8BD20688068C4
:1013A000C043C007E4D10020F8BD0000E4000020E5
:1013B00040420F002DE9F041144C2078002823D042
:1013C000134E06F11007B07800EB400007EB8000E9
:1013D000416804F16A008046FEF757FF002528B1F6
:1013E000B07800EB400007EB8000857204F0E0FE6F
:1013F000A28864234146074801F07FFF2570A5803D
:10140000BDE8F04104F0F4BEBDE8F081B802002070
:1014100018000020240400202DE9F0410646C0B049
:101420004FF480714A48FEF725FF4A4C06EB46050B
:1014300004EB85070220B872A4F110004FF47A780B
:101440008670082E24D004F0B3FE54F82500FEF771
:101450002EFF82B254F8251043463F4801F04DFF5D
:1014600054F82500FEF723FF54F8251082B24346B6
:101470003A4801F042FF04F0BBFE3648398908388B
:1014800002F0E2FB022002F0D9FB40B0BDE8F0819F
:1014900003F044FD0646324A324B33A103F0F4FC1C
:1014A00003F03CFD04464FF0E052324B32A103F012
:1014B000EBFC4FF0AA452A46304B31A1204603F001
:1014C000E3FC22462FA1304603F0D4FC4FF06042EB
:1014D0002F4B30A1304603F0D7FC4FF0E3422E4BA8
:1014E0002EA1304603F0D0FC2A462D4B2DA13046CC
:1014F00003F0CAFC4FF062522B4B2CA1304603F094
:10150000C3FC304603F04AFD044664216846FEF7FA
:10151000B1FE2046FEF7CBFEC5B22A4625A168469D
:1015200002F08AFF04F044FE6846FEF7C0FE82B275
:1015300043466946084801F0E0FE43462A462146F4
:10154000054801F0DAFE43462A46214690E70000AE
:1015500022030020280000206C0400202404002026
:101560000000C0718D8ED04174696D657374616DBA
:1015700070000000AF7DAA416C61740043DEB3418E
:101580006C6F6E0067656F5F706F696E740000004E
:1015900058318541544453008D8EC04154535700F7
:1015A00043DEC34150480000F92DC74174656D709A
:1015B0006572760041542B514D545055423D302CAC
:1015C000312C322C302C226465766963652F322FE2
:1015D0007265706F7274222C2025640D0A00000061
:1015E000FEE710B5044600F09BFE2168401A6168D2
:1015F000884201D3012010BD002010BD014800F039
:1016000085BC0000B404002030B590F8405001249F
:10161000AC40C56B6C60046863604368102B036862
:1016200003D099600068C26030BD9A600068C160F4
:1016300030BD10B5002400F051F8641CE4B2012064
:1016400004F030FDC82CF8D3012010BD10B54FF4C4
:101650000061034800F05AFE012800D0002010BDB0
:101660000008014008B1012200E000224FF40061AF
:10167000014800F050BE00000008014010B500F025
:101680008DF800F079F8FFF7D4FFCC2000F094F843
:10169000BE2000F091F800F05FF8044600F05CF81E
:1016A00004EB002080B21F21B1EBD02F09D1C04341
:1016B000401C80B2FFF761FA0022074BFFF74FF999
:1016C00005E0FFF75AFA6FF00302FFF729FABDE8C9
:1016D0001040FFF7D5BA00000000B0BF1FB50020D2
:1016E000019002904FF40060009002200390694640
:1016F000014800F01BFD1FBD000801401FB5002080
:1017000002904FF4006000900120019002200390AD
:101710006946024800F00AFD1FBD000000080140B4
:1017200010B5FFF7EBFF0020FFF79CFF022004F04D
:10173000B9FC0120FFF796FFFFF7D0FF0C2004F063
:10174000B1FCFFF783FF08B1012400E00024322040
:1017500004F0A8FC204610BD70B500255FF0010420
:10176000FFF7DEFFC001641C40EA5500E4B2C5B2D9
:10177000082CF5D9284670BD10B5FFF7BFFF002033
:10178000FFF770FF40F2EE2004F08CFC0120FFF721
:1017900069FFBDE810400F2004F084BC10B5FFF7CE
:1017A000EBFFFFF746FFCC2000F006F8BDE8104045
:1017B000442000F001B8000070B50546FFF79EFF19
:1017C0005FF0010415F0010F4FEA55054FF00000DE
:1017D00009D0FFF747FF022004F064FC0120FFF767
:1017E00041FF3C2008E0FFF73DFF3C2004F05AFC9D
:1017F0000120FFF737FF022004F054FC641CE4B220
:10180000082CDFD970BD704708B501220B490C4880
:1018100001F0F8FC0A4848300168CA6842F010023A
:10182000CA6000680168406800900649BDE8084049
:10183000642201F5D77001F0D7BC0000D40000206D
:1018400024040020BE02002072B6FEE770B5154DDC
:1018500000260024144800F06FFA3221124800F0EC
:10186000CDF9114800F00CF955F82410084445F85A
:101870002400641CE4B2032CECD30B4800F0BCFA47
:10188000761CF6B2322EE4D30020322155F8202007
:10189000B2FBF1F245F82020401CC0B20328F5D37A
:1018A00070BD00006C01002088010020F8B5002503
:1018B0000446009590F8240001280BD0012084F8FC
:1018C00024002046FFF70CFD2046FFF735FD0600FB
:1018D00002D050E00220F8BDA06A20F4885040F009
:1018E0000200A062022000F0EBFD25490968B1FB6F
:1018F000F0F0400000E0401E00900028FBD120687E
:10190000816841F00801816000F00AFD074608E0A7
:1019100000F006FDC01B0A2803D920688068000774
:1019200015D4206880680007F2D42068816841F0EF
:101930000401816000F0F4FC074612E000F0F0FCC6
:10194000C01B0A280DD920688068400709D5A06A05
:1019500020F0020040F01000A06284F82450012022
:10196000F8BD206880684007E8D4A06A20F0020033
:1019700040F00100A06284F824503046F8BD000019
:10198000E4000020F8B50024009490F824202546B7
:10199000012A12D0012280F824204A681F23072A36
:1019A0000DD20668776B521E02EB820293409F4372
:1019B0000B6893401F43776319E00220F8BD066867
:1019C0000D2A0AD2376BD21F02EB820293409F434B
:1019D0000B6893401F43376309E0F76A0D3A02EB47
:1019E000820293409F430B6893401F43F7620A684B
:1019F000072306680A2A0AD3F7680A3A02EB42026A
:101A000093409F438B6893401F43F76008E037691A
:101A100002EB420293409F438B6893401F43376120
:101A20000A68102A01D0112A20D1124B02689A426A
:101A300017D193681B0219D4936843F40003936091
:101A40000968102912D10C490C4A0968B1FBF2F15E
:101A500001EB8101490000E0491E00910029FBD102
:101A600004E0816A41F020018162012480F8245061
:101A70002046F8BD00240140E400002040420F0051
:101A80000068C06C704700002DE9F0414FF000077E
:101A900004003D467ED0A06A002628B9E66284F89C
:101AA0002460204600F07EF82046FFF719FCA16A6A
:101AB000C90600D420B1A06A40F01000A06269E01D
:101AC000A16A21F4885141F00201A1626268E169D2
:101AD000237B0A4347EA43010A43A1684FF4807716
:101AE000B94209D0012907D05FF0000194F814C071
:101AF000BCF1010F02D00AE03946F7E7F3B1A36A5F
:101B000043F02003A362E36A43F00103E362236826
:101B1000D3F804C02CF4694C4CEA010CC3F804C09F
:101B200021688B68DFF870C003EA0C0313438B60F5
:101B3000A168B9420BD0012909D00CE0DFF85CC0E4
:101B4000A3690CEB43330B4343F40061DFE7218AC5
:101B50000D05A5F580152168CB6A23F470032B438E
:101B6000CB62216889680E4B1940914208D1E66228
:101B7000A16A21F0020141F00101A162BDE8F081FA
:101B8000A06A20F0020040F01000A062E06A40F07D
:101B90000100E0620120F1E7FDF7E1FF00E0FFFF57
:101BA000FE0E1FFF00B585B000210091019102914A
:101BB000039100680E49884218D10E48816941F4AA
:101BC00000718161816901F400710491816941F0C2
:101BD000040181618069694600F0040004901320CB
:101BE000009003200190044800F0A0FA05B000BD69
:101BF0000024014000100240000801402DE9F84394
:101C000000270D460446009700F08AFB80462068B6
:101C10008168C90508D5A06A40F02000A06284F858
:101C200024700120BDE8F8834168C90503D4C06A67
:101C300010F4700F2AD0022000F042FC3B490968E2
:101C4000B1FBF0F62068036939490B424FEA6101A4
:101C50004FEAA1121FD1C3684FEA611C13EA0C0FAF
:101C600019D103690B4225D1C068104222D114203A
:101C700023E0681C0AD02DB100F052FBA0EB080055
:101C8000A84203D920680068800725D5206800682D
:101C90008007EED52DE003690B4202D1C1681142E5
:101CA00006D0026923490A4206D1C068084203D11E
:101CB000542002E0292000E0FC204643009816E072
:101CC000681C11D02DB100F02BFBA0EB0800A8423E
:101CD0000AD90098B04207D2A06A40F00400A0627E
:101CE00084F8247003209DE70098401C0090B042C7
:101CF000E6D321686FF012000860A06A40F400701B
:101D0000A06220688068C0F3424007280CD1207B85
:101D100050B9A06A20F48070A062A06AC00403D405
:101D2000A06A40F00100A06200207BE7E4000020F0
:101D3000244992244992240070B5044690F8240066
:101D400001280DD0012084F824002046FFF7F4FA82
:101D500002004FF0000005D084F82400104670BD4A
:101D6000022070BDA16A40F20123994341F48071C1
:101D7000A1621F4D23681F49AB4218D10E6816F4AB
:101D8000702F14D0A66A46F48016A6620E687605F7
:101D900005D5A66A26F4005646F48056A662A66AC1
:101DA000F6040AD5E66A26F00606E66206E0A66AAA
:101DB00026F48016A6625E68E9E7E06284F82400F3
:101DC0006FF00200186020688368C3F34243072B5A
:101DD00005D1A84208D1096811F4702F04D0816898
:101DE00041F480118160B9E7816841F4A001F9E70D
:101DF000002801400424014010B5044690F8240056
:101E0000012807D0012084F824002046FFF768FA53
:101E100010B107E0022010BDA16A21F4885141F001
:101E20000101A162002184F8241010BD10B590F8C2
:101E300021100022022905D00421816380F820208E
:101E4000012010BD01680B6823F00E030B600168D0
:101E50000B6823F001030B6090F84030C46B012144
:101E600001FA03F3636080F8211080F82020104607
:101E700010BD000010B590F821100024022903D0F5
:101E80000421816301243DE001680A6822F00E020A
:101E90000A6001680A6822F001020A601A4A0168B1
:101EA000914201D1012121E0174A1432914201D11E
:101EB00010211BE0144A2832914201D1891515E006
:101EC000114A3C32914201D189140FE00E4A50323E
:101ED000914202D14FF4803108E00B4A64329142C2
:101EE00002D14FF4801101E04FF08071064A083AA8
:101EF0005160012180F82110002180F82010416BF1
:101F000001B18847204610BD080002402DE9F05F6E
:101F1000C16B0C6801680B68D0F840C0042202FA5B
:101F20000CF2494DDFF824A1494E4A4FDFF828B1A1
:101F3000DFF828E122422CD05A072AD50A689206F7
:101F400003D40A6822F004020A600168A94201D1A0
:101F5000042219E0514501D1402215E0B14202D1DD
:101F60004FF4806210E0B94202D14FF480420BE09E
:101F7000594502D14FF4802206E0714502D14FF459
:101F8000800201E04FF080622F4908394A60C16A3F
:101F90003BE04FF0020808FA0CF818EA040F4FF083
:101FA00000094FF0010235D05FEA837832D50B6823
:101FB0009B0605D40B6823F00A030B6080F82120F0
:101FC0000168A94201D1022219E0514501D1202224
:101FD00015E0B14202D14FF4007210E0B94202D1D3
:101FE0004FF400520BE0594502D14FF4003206E0A5
:101FF000714502D14FF4001201E04FF00072124916
:1020000008394A6080F82090816A00291AD0BDE81A
:10201000F05F0847082505FA0CF5254212D01B078A
:1020200010D50B6823F00E030B6090F84010C36BC3
:1020300002FA01F15960826380F8212080F8209033
:10204000016BE2E7BDE8F09F080002401C0002407F
:102050003000024044000240580002406C00024040
:1020600030B528B308C8134914221944B1FBF2F162
:102070008900C16310498163022141771A6843F6E0
:10208000F0718A43D0E900142143D0E902452C4382
:102090002143046921434469214384692143114355
:1020A000196000214163012242770177084630BD63
:1020B000012030BDF8FFFDBF0000024070B50446AE
:1020C00090F82000002501280CD0012084F8200081
:1020D00094F821600020012E06D084F8200002250B
:1020E000284670BD022070BD022684F82160A063DE
:1020F0002068066826F0010606602046FFF784FA8D
:10210000E06A00282068016802D041F00E0106E074
:1021100021F0040101602068016841F00A010160BA
:102120002068016841F001010160D9E72DE9F84F0D
:10213000DFF8B8910024A9F1040B23460F2709F119
:10214000040AABF1040EC9E00125A5402A40AA42C9
:102150007DD1674ED1F804C0ACEB0608B44532D04F
:1021600014DCBCF1030F3AD009DCBCF1000F2AD01B
:10217000BCF1010F1CD0BCF1020F31D11DE0BCF14C
:10218000110F17D0BCF1120F2AD119E0B8F5881F32
:1021900019D006DCB8F5803F15D0B8F5801F1FD1E7
:1021A00011E0B8F5001F0ED0B8F5041F18D10AE0F1
:1021B000CB6815E0CB681B1D12E0CB6808330FE03D
:1021C000CB680C330CE08B682BB1012B4FF008036C
:1021D00003D0456104E0042302E0056100E0002330
:1021E000FF2A01D8064601E000F104064FEA840503
:1021F00001D9A5F12005D6F8008007FA05FC28EAE8
:102200000C0803FA05F548EA0508C6F800804D6891
:10221000ED0062D5374DAE6946F00106AE61AD699D
:1022200024F0030605F001050095334D06EB050C7F
:10223000DCF80850A607360F07FA06F825EA080565
:10224000DFF8B880404503D14FF0000817E044E0C4
:10225000DFF8AC80404502D14FF001080FE0DFF815
:10226000A480404502D14FF0020808E0DFF89880D2
:10227000404502D14FF0030801E04FF0040808FA8E
:1022800006F848EA0508CCF808804D68D9F80060DF
:10229000ED024D4601D5164300E096432E604D6891
:1022A000DAF80060AD02554601D5164300E09643CA
:1022B0002E604D68DBF80060AD035D4601D5164326
:1022C00000E096432E604D68DEF80060ED03754631
:1022D00001D5164300E096432E60641C0D682A4623
:1022E000E5407FF431AFBDE8F88F000008040140FD
:1022F00000001110001002400000014000080140E1
:10230000000C0140001001400014014080680840AA
:1023100000D0012070470AB1016170470904FBE752
:102320000148806870470000D8000020024881689A
:102330000278114481607047D8000020074810B52A
:10234000016841F010010160032000F0A7F80F20A0
:1023500000F006F800F050F8002010BD0020024008
:1023600030B50546204887B0C16941F00101C1611F
:10237000C06906A900F00100009001A800F0FEF974
:102380000498B8B100F01AFA400018494FF08042A2
:10239000B0FBF1F11648491E0260416040F2E7329D
:1023A0000021C0E903218160816100F0DFFB0400AE
:1023B00003D015E000F002FAE7E70D4800F004FC56
:1023C00004000DD11C2000F03BF8102D07D2002294
:1023D00029461C2000F042F80648056000E0012470
:1023E00007B0204630BD00000010024040420F0000
:1023F000F8040020DC0000200F4808B5816941F096
:1024000001018161816901F001010091C16941F01F
:102410008051C161C069002200F0805000900F21FE
:10242000901E00F01BF80548416821F0E06141F082
:102430000071416008BD0000001002400000014032
:10244000002809DB00F01F020121914040098000B3
:1024500000F1E020C0F8001170470000F0B40E4B0E
:102460001B680C46C3F30223C3F10705042D00D9F2
:102470000425191D072901D2002300E0DB1E0126D7
:1024800006FA05F1491E214099409E40761E1640ED
:102490003143F0BC01F0E4BF0CED00E0064900F070
:1024A000070208684FF6FF03184040EA0220034A7B
:1024B00010430860704700000CED00E00000FA05D2
:1024C00010B501460020234C012922D0022939D021
:1024D00010291DD161682268D20119D51E48C1F3A7
:1024E0008342C903805C0AD561681B4AC1F340413D
:1024F000921E515C194AB2FBF1F1484301E01849C0
:1025000048436168490203D440000321B0FBF1F065
:1025100010BD226AC2F30121012903D1920701D51E
:10252000C80310BD022905D1626A920702D549F697
:10253000404010BD0329FCD121688903F9D54FF231
:10254000244010BD00F04AF96168C1F38131491C93
:102550004900DBE7001002405875000800127A00BD
:1025600000093D002DE9F84305460078354CC007C9
:1025700054D0E0690026C00008D4E06940F08050E3
:10258000E061E069012600F0805000902E4801686B
:10259000C90512D40168804641F480710160FFF7DB
:1025A000BFFE074605E000BFFFF7BAFEC01B642868
:1025B00023D8D8F80000C005F6D5206A10F4407082
:1025C00021D0A98801F4407181421CD0206A1F49A2
:1025D000012220F440700A6000220A602062C007D5
:1025E00011D0FFF79DFE074641F2883808E000BF92
:1025F000FFF796FEC11B414502D90320BDE8F883D1
:10260000206A8007F4D5206A696820F44070084386
:1026100020621EB1E06920F08050E06128788007D8
:1026200005D56068A96820F44040084360602878B8
:10263000C00605D56068E96820F480000843606042
:102640000020DBE7001002400070004040044242DE
:102650002DE9F0470F46050061D0434E306800F089
:102660000700B84209D2306820F0070038433060D4
:10267000306800F00700B84251D128683B4C810710
:1026800012D5400703D5606840F4E06060602878A8
:10269000000703D5606840F4605060606068A96816
:1026A00020F0F000084360602878C00728D06868F0
:1026B000012810D02168022810D0890700292EDABD
:1026C000616821F0030101436160FFF729FE804644
:1026D00041F288390DE021688903EFE78901EDE7D0
:1026E000FFF71EFEA0EB0801494502D90320BDE813
:1026F000F0876068696800F00C00B0EB810FEFD1E3
:10270000306800F00700B8420BD9306820F00700AD
:1027100038433060306800F00700B84201D0012033
:10272000E5E72878400705D56068E96820F4E060AF
:10273000084360602878000706D56068296920F49E
:10274000605040EAC100606000F058F86168084AD3
:10275000C1F30311515CC84006490860064800688F
:10276000FFF7FEFD0020C2E70020024000100240FB
:1027700068750008E4000020DC0000200F220260E1
:102780000C4A536803F003034360536803F0F003FB
:102790008360536803F4E063C36052684FF4E063FE
:1027A00003EAD20202610448006800F007000860F2
:1027B0007047000000100240002002400448054914
:1027C00000684968044AC1F30221515CC84070475F
:1027D000E400002000100240787500080448054914
:1027E00000684968044AC1F3C221515CC84070477F
:1027F000E400002000100240787500080E4A51687D
:102800000E4801F00C03042B11D0082B0FD10C48FB
:10281000C1F38343C903C05C0AD55168084AC1F3B8
:102820004041921E515C054A5043B0FBF1F07047A5
:1028300004494843704700000010024000127A002B
:102840004675000800093D002DE9F84F040070D0DE
:102850002078C04DC00749D06868C0F381000128C6
:1028600007D06868C0F38100022809D16868C003F6
:1028700006D52868800339D560680028E7D035E0A0
:102880006068B0F5803F0BD010B1B0F5A02F11D02B
:10289000286820F480302860286820F4802002E036
:1028A000286840F480302860606890B1FFF738FDF8
:1028B00006460AE0286840F480202860F0E700BF60
:1028C000FFF72EFD801B642873D828688003F7D596
:1028D0000CE0FFF725FD064605E000BFFFF720FDF1
:1028E000801B6428F0D828688003F7D420789A4E9B
:1028F00080074FF001094FF0000839D5686810F0E3
:102900000C0F07D06868C0F38100022809D16868FD
:10291000C00306D42868800714D52069012808D18F
:1029200010E02069B0B1C6F80090FFF7F9FC074647
:1029300005E00AE1FFF7F4FCC01B0228C4D82868B0
:102940008007F7D52868616920F0F80040EAC100E7
:1029500028600DE0C6F80080FFF7E2FC074604E0BF
:10296000FFF7DEFCC01B022823D828688007F7D4B5
:10297000207800072CD57948A169D9B1C0F800901A
:10298000FFF7CEFC074604E0FFF7CAFCC01B022895
:102990000FD8686A8007F7D571484FF4FA5100687C
:1029A000B0FBF1F0009000BF0098411E0091FAD2F8
:1029B0000EE080E0C0F80080FFF7B2FC074604E0BC
:1029C000FFF7AEFCC01B022875D8686A8007F7D4F1
:1029D0002078400760D5E8690027C00008D4E8697E
:1029E00040F08050E861E869012700F080500090D5
:1029F0005C480168C90513D40168834641F48071BD
:102A00000160FFF78DFC824606E000BFFFF788FCFF
:102A1000A0EB0A0064284ED8DBF80000C005F5D50D
:102A2000E06801280AD008B1052813D0286A20F0F0
:102A300001002862286A20F0040002E0286A40F0C1
:102A400001002862E06841F2883B98B1FFF768FC1A
:102A500082460BE0286A40F004002862EEE700BFDF
:102A6000FFF75EFCA0EB0A0159455AD8286A800797
:102A7000F6D50CE0FFF754FC824605E0FFF750FC6A
:102A8000A0EB0A0159454CD8286A8007F6D41FB13B
:102A9000E86920F08050E861E06988B36968C1F3B3
:102AA0008101022944D00228C6F8608004D0FFF7D3
:102AB00037FC044638E034E0FFF732FC074604E018
:102AC000FFF72EFCC01B02282BD828688001F7D402
:102AD000206AB0F5803F05D16868A16820F4003015
:102AE00008436860D4E908010843696821F4741157
:102AF00008436860C6F86090FFF712FC044606E0E1
:102B000025E000BFFFF70CFC001B022809D828684D
:102B10008001F7D51BE000BFFFF702FC001B022875
:102B200002D90320BDE8F88F28688001F4D40EE0B4
:102B30000128F7D06868226A00F48031914204D1FC
:102B4000616A00F47010884201D00120EAE7002099
:102B5000E8E70000001002400000424280044242C8
:102B6000E4000020007000407047704710B504007A
:102B700003D094F83D0010B107E0012010BD002003
:102B800084F83C00204600F01EF8022084F83D0046
:102B9000211D206801F058F9012084F8460084F8CE
:102BA0003E0084F83F0084F8400084F8410084F837
:102BB000420084F8430084F8440084F8450084F817
:102BC0003D00002010BD704790F83D10012901D054
:102BD00001207047022180F83D100168CA6842F068
:102BE0000102CA6000680B49884208D0B0F1804FEA
:102BF00005D00949884202D00849884204D1816839
:102C000001F00701062903D0016841F001010160CC
:102C100000207047002C01400004004000080040E4
:102C2000704770B50446006801694FF00005C9435C
:102C3000890715D4C168C943890711D4E91E016108
:102C400001202077206880698007204602D0FFF7A6
:102C5000E7FF04E000F098F8204600F096F82577AA
:102C600020680169C943490717D4C168C9434907A6
:102C700013D46FF00401016102202077206880697D
:102C800010F4407F204602D0FFF7CAFF04E000F0B6
:102C90007BF8204600F079F8257720680169C94360
:102CA000090716D4C168C943090712D46FF0080197
:102CB0000161042020772068C0698007204602D087
:102CC000FFF7AEFF04E000F05FF8204600F05DF88B
:102CD000257720680169C943C90617D4C168C9436B
:102CE000C90613D46FF01001016108202077206815
:102CF000C06910F4407F204602D0FFF791FF04E046
:102D000000F042F8204600F040F82577206801697D
:102D1000C943C90708D1C168C943C90704D1891E7D
:102D20000161204600F032F820680169C9430906B4
:102D300009D4C168C943090605D46FF08001016157
:102D40002046FFF711FF20680169C943490609D4ED
:102D5000C168C943490605D46FF0400101612046AE
:102D600000F01BF820680169C94389060BD4C168CB
:102D7000C943890607D46FF0200101612046BDE8F0
:102D80007040FFF7F2BE70BD704770470068B0F149
:102D9000804F01D1FFF7CABA70477047704710B52E
:102DA00004460068406994F84110C0F3C01021291E
:102DB00011D180B12068143050E8001F21F080014B
:102DC00040E80012002AF5D1A06B08B1FFF72EF8F9
:102DD000204601F081F92068406994F84210C0F360
:102DE0008010222911D180B12068143050E8001FD2
:102DF00021F0400140E80012002AF5D1E06B08B153
:102E0000FFF714F8204601F040F9002010BD70478C
:102E1000F8B5016804460868CA684B6910F00F0FDE
:102E20004FF0000559D003F0010602F490773743C4
:102E300065D0C10705D0D10503D5616C41F0010112
:102E40006164410705D5D90703D0616C41F00201E7
:102E50006164810705D5D90703D0616C41F0040195
:102E60006164010707D502F02001314303D0616C92
:102E700041F008016164616C00293AD0800604D5F4
:102E8000900602D5204601F035F920684069616C52
:102E9000C0F38010090700D460B3204601F0F5F8B4
:102EA00020684069400621D52068143050E8001F92
:102EB00021F0400140E80012002AF5D1E06BA8B1F2
:102EC0006D494163E06BFEF7D5FF002811D0E06B40
:102ED000416B01B0BDE8F040084783060FD593066B
:102EE0000DD52046BDE8F84001F004B92046FFF7B3
:102EF0008EFFF8BD2046FFF78AFF6564F8BD266B9C
:102F00002023012E7CD1C6067AD5D60678D508684E
:102F10004868009048694FF00206400640D5E16BD2
:102F2000086840680004000CE8D0A28D8242E5D910
:102F3000E085886920282DD020680C3050E8001FDB
:102F400021F4807140E80012002AF5D12068143085
:102F500050E8001F21F0010140E80012002AF5D1DD
:102F60002068143050E8001F21F0400140E80012B2
:102F7000002AF5D184F84230256320680C3050E8EF
:102F8000001F21F0100140E80012002AF5D1E06B8B
:102F9000FEF74CFF6663A08DE18D401A81B22AE0F6
:102FA000A08DE18D401A81B2E08D0028A6D00029C5
:102FB000A4D022680C3252E8000F20F4907042E84E
:102FC0000007002FF5D12068143050E8002F22F0C0
:102FD000010240E80027002FF5D184F84230256334
:102FE00020680C3050E8002F22F0100240E8002347
:102FF000002BF5D166632046FFF7D0FEF8BDFFE752
:1030000005062BD5150629D594F841002128F5D1C0
:10301000A068B0F5805F01D12069B0B1206A411C81
:103020002162216800784860E08C401E0004000C9A
:10303000E084E3D12068C16821F08001C16020688C
:10304000C16841F04001C160D8E7206A0088C0F340
:1030500008004860206A801C2062E5E74006CDD564
:103060005006CBD5CA68204622F04002CA6084F8D8
:10307000413000F08FF9C1E78D3F000870B50400C2
:1030800004D094F84100002510B106E0012070BD85
:1030900084F84050204600F023F8242084F84100B2
:1030A0002068C16821F40051C160204601F084F815
:1030B0002068016921F4904101612068416921F093
:1030C0002A0141612068C16841F40051C160656412
:1030D000202084F8410084F842006563002070BD20
:1030E000F0B585B000240094019402940394064640
:1030F000374F0368374902220320374DBB4226D1A0
:103100008B6943F480438B618B6903F480430493A0
:103110008B6943F004038B618969039001F004011A
:1031200004911102CDE9001269462846FEF7FEFF20
:103130002815CDE90004694628460294FEF7F6FFFB
:10314000002205212520FFF789F925203BE0234FA8
:10315000BB423AD1CB6943F40033CB61CB6903F472
:10316000003304938B6943F004038B6189690390F6
:1031700001F0040104910421CDE9001269462846BA
:10318000FEF7D4FF0820CDE90004694628460294E2
:10319000FEF7CCFF134D1248C5E900048020C5E9B5
:1031A00002402C616C61AC612846EC61FEF758FF6F
:1031B00008B1FEF749FBF5630022042126206E6268
:1031C000FFF74CF92620FFF73BF905B0F0BD0000F2
:1031D0000038014000100240000801400044004057
:1031E0006C000240B404002090F84230202B01D043
:1031F0000220704721B11AB10023036301F038B8EF
:103200000120704790F84230202B01D002207047F7
:1032100021B11AB10023036301F072B80120704795
:103220002DE9F041054600682749284E884227D1FC
:10323000274C2848617822784254491CC9B2084476
:10324000617010F8011C0A291AD110F8020C0D281F
:1032500016D1204920A001F0DFF830684006FCD5E7
:103260001C494FF480774FF6FF733A4601F52D70F5
:1032700000F043F80020607039461648FCF7FAFF6A
:103280002868B04218D11A4C04F16A00A1886288FB
:1032900039B10844A11DFCF7D4FFA0886188084417
:1032A00003E0A11DFCF7CDFF6088A0806188A01D10
:1032B000FCF7E0FF01202070BDE8F0410122044945
:1032C0000C48FFF79FBF0000003801400044004059
:1032D000D4000020B801002075736172743120722F
:1032E000656320627566662069732025730D0A0088
:1032F000B80200202404002070472DE9F84304465A
:1033000090F841001F4616460D46202802D00220A4
:10331000BDE8F8837DB176B100206064212084F897
:103320004100FEF7FDFFA6848046E684A068B0F564
:10333000805F02D003E00120EAE7206910B12E4649
:1033400000250EE000260CE08021204600F0F3FF6F
:10335000A0B9AEB116F8010B21684860E08C401EA0
:10336000E084E08C43464FF0000200970028EBD148
:103370004FF04001204600F0DEFF30B10320C7E7E8
:1033800035F8020BC0F30800E6E7202084F841007E
:103390000020BDE77047FEE7FEB5002426480094F4
:1033A0000194244902940160891581600473012508
:1033B0000575052606614FF460214460C0E9065199
:1033C000FEF762FB08B1FEF73FFACDE9004569461A
:1033D00019480294FEF7D6FA08B1FEF735FA022032
:1033E000CDE9005069461448FEF7CCFA08B1FEF763
:1033F0002BFA04240320CDE9004069460E48FEF76D
:10340000C1FA08B1FEF720FACDE9006469460A481E
:10341000FEF7B8FA08B1FEF717FA0620CDE9000664
:1034200069460548FEF7AEFA002801D0FEF70CFA0F
:10343000FEBD00000024014088010020094808B5B5
:10344000416941F0010141614069002200F0010041
:10345000009005211020FFF701F8BDE8084010207A
:10346000FEF7EEBF001002401CB5084A00210848D4
:1034700001F0C2FE074900238022C8601820CDE970
:10348000000105A1074803F045FB1CBD207500089D
:10349000593C0008C400002053544152545F544129
:1034A000534B00003D3A00082DE9F04186B000245E
:1034B00034480094019402940394816941F010010E
:1034C0008161816901F010010491816941F020015D
:1034D0008161816901F020010491816941F0040159
:1034E0008161816901F004010491816941F0080161
:1034F00081618069244F00F00800049000224FF49D
:103500008F513846FEF707FFDFF8808000224FF426
:1035100073414046FEF7FFFE4FF487500125032616
:10352000CDE90005CDE9024669463846FEF7FEFDC5
:10353000009669464046CDE90145FEF7F7FD4FF498
:1035400070400226CDE90005CDE9024669464046B5
:10355000FEF7ECFD2802CDE90005CDE902466946FB
:103560003846FEF7E3FD4FF44070009001AA1120A9
:1035700082E8510069464046FEF7D8FD06B0BDE836
:10358000F08100000010024000080140000C0140E2
:103590000C4810B50A4901604FF4165141600021F2
:1035A00081600C22C160C0E904128161C161FFF732
:1035B00065FD002803D0BDE81040FEF745B910BDF9
:1035C00000380140240400200C4810B50A4901606D
:1035D0004FF416514160002181600C22C160C0E9A6
:1035E00004128161C161FFF749FD002803D0BDE8E5
:1035F0001040FEF729B910BD004400406C040020C3
:10360000FEE7FEF701F900F007F800F00FF864207C
:1036100002F0A2FEF9E70000034801210022C17078
:1036200002714171704700001800002070B52B4EE8
:103630000125A6F11004E0780028FCD0012804D070
:10364000022814D00328F6D070BD20796179884211
:1036500005D000EB400106EB8101C97AA171FDF7AD
:10366000DBFE20780028EFD10220E07070BDFDF76E
:10367000A1FE207900EB400106EB8101897A89B136
:1036800016480838FDF7ADFF10B3217901EB410072
:1036900006EB80008572A079B0B1401EA071617107
:1036A000E570C8E7082806D00A280DD0401C207114
:1036B000401C6071F4E76071E5706178491CC9B223
:1036C00061700329B7D0F1E7BDE87040FFF7A4BFF0
:1036D000BDE870404FF47A7002F03EBE2800002032
:1036E000FEE770B500240021204600F0DCF800253C
:1036F000002000F062F96D1CEDB2802DF8D3641C3F
:10370000E4B2082CEFD370BD10B5064C01221102B3
:103710002046FEF700FE20460122BDE8104051027F
:10372000FEF7F9BD000C01402DE9F047144E0024CE
:1037300007464FF080084FF40079B51528FA04F2D7
:103740003A4049463046FEF7E6FD0122294630461A
:10375000FEF7E1FD002229463046FEF7DCFD641C41
:10376000E4B2082CEAD3012229463046FEF7D3FD05
:1037700029463046BDE8F0470022FEF7CCBD0000E8
:10378000000C014070B501220B4D54022146284621
:10379000FEF7C1FD0122160231462846FEF7BBFDA9
:1037A000002221462846FEF7B6FD31462846BDE8F0
:1037B00070400022FEF7AFBD000C014070B50A4D0D
:1037C0004FF40074002221462846FEF7A4FD012292
:1037D00011022846FEF79FFD21462846BDE87040AD
:1037E0000122FEF798BD0000000C014010B500203A
:1037F0004FF47A720021491C9142FCD3401C904244
:10380000F8D3FFF781FFAE2000F0C6F8D52000F016
:10381000C3F8802000F0C0F8A82000F0BDF83F20D9
:1038200000F0BAF8D32000F0B7F8002000F0B4F8A8
:10383000402000F0B1F8A12000F0AEF8C82000F060
:10384000ABF8DA2000F0A8F8122000F0A5F88120EB
:1038500000F0A2F8CF2000F09FF8D92000F09CF8EB
:10386000F12000F099F8DB2000F096F8302000F00D
:1038700093F8A42000F090F8A62000F08DF88D2099
:1038800000F08AF8142000F087F8AF2000F084F8E8
:10389000BDE81040FFF725BF0246012000E050437D
:1038A000491EFCD2704710B50C4640F0B00000F045
:1038B00073F8102040EA141000F06EF804F00F00C6
:1038C000BDE8104000F068B82DE9F0410746CE0091
:1038D0004000083E801E15464FF0FF38F1B2C0B2DE
:1038E000FFF7E1FF1148002400EB05152819A0F5AA
:1038F000805090F8000E00F060F8641CE4B2082CD0
:10390000F4D308EB4700F1B2C0B2FFF7CCFF0024BC
:103910002819A0F5805090F8080E00F04EF8641CAD
:10392000E4B2082CF4D3BDE8F0810000306F000849
:103930002DE9F04700241D461646884681460A2791
:1039400013E0291B0A20491EFFF7A6FFB6FBF0F083
:10395000B0FBF7F107FB110208EB0400C1B24846C7
:103960003032FFF7B1FF641CE4B2AC42E9D3BDE8EA
:10397000F0872DE9F04115460E460746002406E083
:103980003019C1B23846FFF79FFF641CE4B22A5DCC
:10399000002AF5D1BDE8F08110B50446FFF7F2FE2C
:1039A0007820FFF7C1FE0020FFF7BEFE2046FFF79C
:1039B000BBFEBDE81040FFF701BF10B50446FFF79E
:1039C000E1FE7820FFF7B0FE4020FFF7ADFE204675
:1039D000FFF7AAFEBDE81040FFF7F0BE104810B593
:1039E0008068FDF7B4F86FF00B01FCF705FFFDF7F9
:1039F00004F94FF066320B4BFCF7B1FFFDF740F9CD
:103A0000FDF7FBF8084A094BFCF7A9FF084A094BE8
:103A1000FCF7FEFEFDF734F90749086110BD000010
:103A20006C01002066660A4087A757CA320417C097
:103A30008195438B6CA73040AC0000201CB502F090
:103A4000B7FB0E491920CDE90001002380220CA10B
:103A50000E4803F05FF809491820091DCDE900015F
:103A6000002380220AA10D4803F054F8002002F040
:103A700099FCBDE81C4002F0BBBB0000C800002060
:103A80004E425F494F545F7461736B000336000808
:103A900053656E736F725F7461736B00BB3A00089D
:103AA00010B5FDF7D3FE00F049F900F003FAFFF777
:103AB00095FFBDE8104000F061BA02F079FB00F01C
:103AC00007F802F095FB0A2002F046FCF5E700003B
:103AD00070B5FFF7E5FF01214EA20846FFF749FF49
:103AE0002E2209210120FFF7EFFE4C4C2068FDF744
:103AF00051F80246042305210120FFF719FF484E23
:103B000020683146FCF708FEFDF744F880B26425D2
:103B1000B0FBF5F105FB110202230A210120FFF79A
:103B200007FF40A201210220FFF723FF2E220921D7
:103B30000220FFF7C9FEE068FDF72CF802460423D7
:103B400005210220FFF7F4FE3146E068FCF7E4FDB2
:103B5000FDF720F880B2B0FBF5F105FB110202235E
:103B60000A211846FFF7E4FE30A201210320FFF7E7
:103B700000FF2E2206210320FFF7A6FE2069FDF795
:103B800009F80246022304210320FFF7D1FE284949
:103B90002069FCF7C1FDFCF7FDFF80B24FF47A719C
:103BA000B0FBF1F201FB1202032307211846FFF7D5
:103BB000BFFE20A201210420FFF7DBFE606910F1A7
:103BC000FF4F01D32D2200E02B2203210420FFF719
:103BD0007BFE6069FCF7DEFF0246042103230846F2
:103BE000FFF7A6FE2E2207210420FFF76DFE1249E3
:103BF0006069FCF791FDFCF7CDFF42F21071B0FB5C
:103C0000F1F201FB1202BDE87040042308211846BE
:103C1000FFF78EBE5444533A00000000AC00002071
:103C20000000C8425453573A0000000050483A0080
:103C300000007A44543A000000401C46014A012129
:103C4000115470470000002070B50D460446FEF781
:103C500067FBC4E9000570BD00244FF47A75641C4D
:103C6000214603A000F0D8FB284602F075FBF6E7DA
:103C7000537461727444656661756C74D4CBD0D032
:103C8000B4CECAFD3A2564A3A1A3A1A3A1210D0A24
:103C90000000000010B5502080F31188BFF34F8F53
:103CA000BFF36F8F02F0A2FF18B104494FF08050AC
:103CB0000860002080F3118810BD000004ED00E0D2
:103CC00030B593B028216846FCF7D4FA14210AA82D
:103CD000FCF7D0FA002501200F95109511950104ED
:103CE00012958DE8230004904FF4E010CDE9081000
:103CF000022407946846FEF7A7FD08B172B6FEE7F6
:103D00000AA90F2081E831004FF48060CDE90D054C
:103D100002210AA8FEF79CFC08B172B6FEE74FF438
:103D2000004011900F940FA8FEF71CFC002801D052
:103D300072B6FEE713B030BD704700002DE9F047C2
:103D400000F01CF9054631480068FCF700FF6FF0F1
:103D50000B01FCF751FDFCF750FF4FF066322C4B86
:103D6000FCF7FDFDFCF78CFFDFF8A8A00446CAF8BD
:103D700004002846FCF741FF0022274BFCF7E9FD31
:103D8000264A274BFCF7EBFD0022264BFCF740FDB3
:103D9000FCF776FF01462046FCF7F0FCFCF72DFF10
:103DA0001E4A04460D4652421F4BFCF7D8FD804682
:103DB0008946204629461D4A1D4BFCF7D0FD224668
:103DC0002B46FCF7CCFD06460F4620462946194AED
:103DD000194BFCF7C4FD22462B46FCF7C0FD2246DA
:103DE0002B46FCF7BCFD32463B46FCF7B2FD424693
:103DF0004B46FCF70DFD4FF0FF32FCF791FEFCF750
:103E00003FFFCAF80000BDE8F08700006C01002009
:103E100066660A40AC000020000039407B14AE47C3
:103E2000E17A943F0000F03F1ECB8A40EC51B81E6F
:103E300085FB6F403D0AD7A370AD60400148FEF797
:103E4000F0BE0000F8040020F0B50268164B174CD5
:103E5000174D4FF08047984205D0B84203D0A0429A
:103E600001D0A84203D122F070064A68324398423A
:103E700005D0B84203D0A04201D0A84203D122F419
:103E80004074CA6822434C6922F0800222430260D7
:103E90008A68C2620A688262984201D10969016334
:103EA00001214161F0BD0000002C014000040040F0
:103EB000000800402DE9F04100F060F82449FCF7CB
:103EC00025FCFCF79AFE234A234BFCF748FDFCF740
:103ED000D7FE044621484068FCF739FE6FF00B011D
:103EE000FCF78AFCFCF789FE4FF066321C4BFCF7AE
:103EF00036FDFCF7C5FE1B4DFCF77FFE1A4A1B4B37
:103F0000FCF79FFDFCF7BCFE06462146E860FCF787
:103F1000FDFBFCF772FEDFF85880164B4246FCF7BB
:103F20001EFDFCF7ADFEFCF768FE07460C4630466A
:103F3000FCF763FE4246104BFCF711FD3A46234660
:103F4000FCF766FCFCF79CFEA860BDE8F081000071
:103F50000000C841613255302AA993BF6C0100208E
:103F600066660A40AC0000201F85EB51B81EE53F95
:103F70003D0AD7A3700D8B40700D8BC010B5FDF7B7
:103F80007DFB0149486110BDAC00002010B5406ABE
:103F90000021C185C184FEF73AFF10BD70B5446AA7
:103FA0002068406994F84110C0F3C0100025212911
:103FB00004D118B1E584204600F08EF820684069ED
:103FC00094F84210C0F38010222904D118B1E5857D
:103FD000204600F05AF8606C40F010006064204603
:103FE000FEF715FF70BD10B50146406A0968096803
:103FF0004FF0000289062ED4C28501680C3151E8C9
:10400000003F23F4807341E80034002CF5D10168AF
:10401000143151E8003F23F0010341E80034002C43
:10402000F5D10168143151E8003F23F0400341E825
:104030000034002CF5D1202180F84210016B0129B9
:1040400009D101680C3151E8003F23F0100341E829
:104050000034002CF5D14263016B012902D0FFF737
:10406000DFF810BD818DFEF799FE10BD10B5406AD6
:1040700001214163016B012902D0FFF73DF910BD19
:10408000818D4908FEF78AFE10BD01680C3151E8A8
:10409000002F22F4907241E80023002BF5D1016833
:1040A000143151E8002F22F0010241E80023002BD7
:1040B000F5D1016B012909D101680C3151E8002FBC
:1040C00022F0100241E80023002BF5D1202180F8D6
:1040D000421000210163704701680C3151E8002F44
:1040E00022F0C00241E80023002BF5D1202180F806
:1040F0004110704708B590F84210222901D00220E3
:1041000008BD82684FF480539A4201D1016921B100
:10411000816A9A421BD04AB10AE00268816A5268F9
:10412000C2F308020A80816A891C08E0026972B140
:104130000268526802F07F020A70816A491C81623B
:10414000C18D491E0904090CC18503D01BE002681A
:104150005268F1E70168CA6822F02002CA6001686B
:10416000CA6822F48072CA6001684A6922F00102BA
:104170004A61202180F8421000214163026B012A2C
:1041800003D0FFF74DF8002008BD016301680C3132
:1041900051E8002F22F0100241E80023002BF5D156
:1041A00001680A68D20602D50A6849680091818DC3
:1041B000FEF7F4FDE7E7000070B50446006801690A
:1041C000E26821F44051114301612169A06808436C
:1041D000616908432168CA6841F20C639A4302434B
:1041E000CA6020684169A26921F4407111434161AC
:1041F0001E492068884202D1FEF7F0FA01E0FEF77E
:10420000DDFA00EBC00101EB001260686421800060
:10421000B2FBF0F3B3FBF1F36FF018067343B2FB9C
:10422000F0F5B2FBF0F605EB8305322303EB051541
:10423000B5FBF1F5B6FBF1F605F0F00505EB06155B
:10424000B2FBF0F6B2FBF0F0B0FBF1F06FF0180249
:10425000504306EB800003EB0010B0FBF1F0216847
:1042600000F00F002844886070BD00000038014055
:1042700038B581620446828500201346606422229C
:1042800084F84220E56B1B4AAA62E56B1A4AEA628F
:10429000E56B1A4A2A63E26B50630A462168E06BB9
:1042A000091DFDF70BFF2068016840680090206938
:1042B00048B120680C3050E8001F41F4807140E89C
:1042C0000012002AF5D12068143050E8001F41F098
:1042D000010140E80012002AF5D12068143050E8AE
:1042E000001F41F0400140E80012002AF5D10020F3
:1042F00038BD0000E73F00086D4000089D3F000802
:1043000081628285C28500214164222180F84210A9
:10431000016921B10168CA6842F48072CA6001680B
:104320004A6942F001024A610068C16841F0200117
:10433000C160002070472DE9F041984617460E46AF
:104340000446069D27E0681C25D02DB1FDF7E8FF47
:10435000A0EB0800A8421ED920680C3050E8001FCE
:1043600021F4D07140E80012002AF5D12068143001
:1043700050E8001F21F0010140E80012002AF5D1A9
:10438000202084F8410084F84200002084F8400096
:104390000320BDE8F0812068006836EA000004D000
:1043A0000020B842CFD00020F3E70120F9E7000059
:1043B0000148FEF72DBD00002404002038B5124C42
:1043C00020680168C943C9061CD401684068009090
:1043D0002046FEF7E4FC2068016840680B4800684E
:1043E00040680B4CC0F1640060800748FEF718FF7E
:1043F0000548FEF70DFD6422A11DBDE838400248C6
:10440000FEF7F2BE38BD00006C040020B4040020AA
:10441000B8020020FEE700000FB4054B10B503A959
:10442000044A029800F05CF910BC5DF814FB00002F
:10443000B5500008600100200FB4084B10B504A966
:1044400002AA039800F04CF9044602A9002000F0EB
:10445000CAFC204610BC5DF814FB0000E74D0008C4
:104460000907090E002804DB00F1E02080F80014A1
:10447000704700F00F0000F1E02080F8141D704735
:1044800030B528B1144C031F002021680A4605E00E
:10449000084630BD9A4203D810465268002AF9D126
:1044A000002800D041680BD00468A3EB0005A542AA
:1044B00004D11B681C440346046002E0436000E032
:1044C00023603AB11C68D51AA54203D115682C4463
:1044D0001C6052685A6030BD640100202DE9F0472D
:1044E00082460F4C10480D4E0E4F001B4FF0000837
:1044F00020F007054FF0010900221146504600F058
:10450000E5FD002802D1306810B10020BDE8F08739
:104510003C60C4E90058C6F80090EDE7680100204F
:10452000A425002064010020A031002002E008C87A
:10453000121F08C1002AFAD170477047002001E01D
:1045400001C1121F002AFBD1704700002DE9FF5F57
:1045500082B00021DDE90430020DDDF840B00343F4
:1045600018D044F61050A2F2FF32424315141198AD
:1045700001281FD0A5EB0B00401C5FEA000A4FF09A
:1045800000064E4FDFF83891B046504615D5CAF1B7
:10459000000413E0119801244AA3012801D16FEA15
:1045A0000B010298119AC0E90031C0E9024206B03D
:1045B000BDE8F09FCBF10000DFE704460021404A50
:1045C000491842EB0450CDE9001012E0E00707D093
:1045D00032463B4640464946FCF7C1F9804689468B
:1045E00032463B4610461946FCF7B9F906460F46D7
:1045F0006410002CEAD1DDE90401DDE90023BAF101
:10460000000F06DAFCF7ABF942464B46FCF7A7F978
:1046100005E0FCF716FA42464B46FCF712FA044650
:104620000E460022284BFCF713FB03D84FF0FF3057
:10463000014607E00022254B20463146FCF7E8F80A
:10464000FCF746FC102409E0002C0ADB0A220023B8
:10465000FBF7B6FD039B30321A55641E50EA010287
:10466000F2D1641C039AC4F111031444119A012A73
:1046700003D0012208430DD10AE0084304D00020F2
:104680004FF0110B119072E7A3EB0B056D1E0DE0BF
:104690005B4504DD4FF0000205F1010504E003DA9B
:1046A0004FF00002A5F10105002AECD00298119903
:1046B000C0E90231C0E9004579E70000000014407C
:1046C0000000F03F300000000000F0430000E03F39
:1046D00030380A2801D201207047002070470000BE
:1046E0002DE9FF4F95B09A46884606460025EEE133
:1046F000252877D100242746F94A0121039400E0B8
:10470000044316F8013F203B01FA03F01042F7D1B1
:1047100030782A2811D06FF02F033078A0F13002C2
:10472000092A16D8039A44F0020402EB820203EB32
:1047300042021044761C0390EFE758F8042B0392D2
:10474000002A03DA504244F40054039044F0020477
:10475000761C30782E2816D116F8010F44F0040488
:104760002A280DD06FF02F023078A0F13003092BEA
:1047700009D807EB870302EB4303C718761CF3E75E
:1047800058F8047B761C30786C280FD006DC4C2857
:1047900017D068280DD06A2814D104E0742810D0EE
:1047A0007A280FD10DE044F400140AE044F4801498
:1047B00001E044F440147278824202D104F580147E
:1047C000761C761C307866280BD013DC582877D0FE
:1047D00009DC002875D04528F6D04628F4D04728B3
:1047E0001AD193E118E0632835D0642879D0652880
:1047F00012D18BE1702873D008DC6728F1D06928CA
:104800006FD06E280DD06F2806D1ACE073282CD065
:10481000752874D0782853D05246179990476D1C4C
:1048200054E1C4F30250022809D003280DD0D8F86F
:10483000001004280DD00D6008F1040846E1D8F8F6
:104840000010EA17C1E90052F6E7D8F800100D8011
:10485000F2E70D70F0E718F8041B8DF80010002047
:104860008DF80100EB46012003E058F804BB4FF03F
:10487000FF3061074FF0000102D40DE009F10101A2
:104880008946B9420FDA8145F8DB1BF80910002987
:10489000F4D108E009F1010189468142FADB1BF8F5
:1048A00009100029F6D103985346A0EB09072146C9
:1048B0003846179A00F080FA284400EB090507E013
:1048C00044E008E10DE01BF8010B524617999047B0
:1048D000B9F10109F7D2534621463846179AF2E05A
:1048E00039E00A21C4F302524FF0000B0091022A72
:1048F00006D058F8040BC117032A09D00AE023E0B8
:1049000008F1070020F00702F2E80201904605E0F6
:1049100000B2C117042A01D140B2C117002906DA3A
:104920000A460021404261EB02012D2202E02205ED
:1049300004D52B228DF80420012203E0E20701D0E8
:104940002022F7E7914657E00A2100E010214FF0BE
:10495000000B00910BE010214FF0000B44F0040419
:104960000827009103E008204FF0000B0090C4F3EB
:104970000252022A05D058F8040B0021032A08D05D
:1049800008E008F1070020F00702F2E80201904673
:1049900003E080B2042A00D1C0B24FF00009220720
:1049A0002AD53278702A07D0DDF800C08CF0100CC0
:1049B0005CEA0B0C05D00EE040228DF804200122A9
:1049C00008E050EA010306D030238DF804308DF85A
:1049D000052002229146009B83F0080353EA0B0353
:1049E0000AD150EA010201D1620705D530228DF8C3
:1049F00004204FF001097F1E3278582A04D039A2D2
:104A00000C920CAA02920BE03BA2F9E75B46009ADB
:104A1000FBF7D6FB0C9B9B5C029A521E0292137012
:104A200050EA0102F2D1029804A9081A00F1200B01
:104A3000600702D524F4803400E001275F4502DDE1
:104A4000A7EB0B0000E0002000EB0B0100900398A7
:104A50004944401A0390E00306D453462146179A6E
:104A6000039800F0A9F90544002706E001A8524682
:104A7000C05D179990476D1C7F1C4F45F6DBE00326
:104A80000CD553462146179A039800F095F9054432
:104A900004E030205246179990476D1C0099481E3B
:104AA00000900029F5DC08E002980299524600784F
:104AB000491C0291179990476D1CBBF10001ABF1A5
:104AC000010BF1DC5BE100F065F90544761C307800
:104AD00000287FF40DAE19B02846BDE8F08F000025
:104AE00009280100303132333435363738396162C4
:104AF0006364656600000000303132333435363788
:104B0000383941424344454600000000600700D464
:104B1000062708F1070020F00700F0E8022380468E
:104B200003F0004C5FEA0C0001D097A009E02005DB
:104B300001D596A005E0E00701D095A001E0AFF215
:104B40004C001390307823F0004365280CD006DC2D
:104B5000452809D046281DD047287FD13BE066284C
:104B600018D067287AD136E00021112F01DB1120FF
:104B700000E0781CCDE9000104A90CA8FFF7E6FCD1
:104B8000DDE90D010C9A4FF0000B07F101091092BD
:104B900000914EE04FF000400097CDE9011004A9CC
:104BA0000CA8FFF7D3FCDDE90D020C9B0F994FF029
:104BB000000B91461093009211B9791C00EB01098A
:104BC000B7EB090003D4C0F1FF3B07F10109A9EBE2
:104BD0000700019042E0012F00DA01270021112F88
:104BE00001DD112000E03846CDE9000104A90CA840
:104BF000FFF7ACFCDDE90D010C9A00914FF0000BC2
:104C0000B946109221070FD4009A4A4503DA91461B
:104C100001E0A9F10109B9F1010F05DD109AA9F12F
:104C20000101515C3029F4D0B84202DA10F1040FCE
:104C300003DA0121CDE9011010E0002803DC8344F0
:104C4000A9EB000102E0411C494500DD8946A0EBCB
:104C50000B00401C01904FF000400290200705D44B
:104C60000198484502DB4FF0FF30019000208DF89D
:104C70004B0002980DF14B07B0F1004F25D00220F8
:104C80000C902B200D90029800280CDA40420290E4
:104C90002D200D9007E00A210298FCF70DF8303125
:104CA000029007F8011D0C99481E0C900029F2DCB7
:104CB00002980028EFD1791E0D980870307800F026
:104CC000200040F0450007F8020D11A8C01BC01DD0
:104CD00002901398007800B1012000EB09010198BF
:104CE00001EBE071029801440398401A401E0390C2
:104CF000E00306D453462146179A039800F05CF867
:104D000005441398007818B15246179990476D1CC6
:104D1000E00323D553462146179A039800F04CF838
:104D200005441BE0BBF1000F07DB0098584504DD8C
:104D30001098179910F80B0001E01799302052468F
:104D4000904701980BF1010B401E05F10105019000
:104D500004D12E205246179990476D1CB9F10001DD
:104D6000A9F10109DEDC05E017F8010B524617999D
:104D700090476D1C0299481E02900029F4DC5346AE
:104D80002146179A03989EE62D0000002B00000094
:104D9000200000002DE9F041044600251E4617467C
:104DA000880404D405E039462020B0476D1C641EF9
:104DB000F9D52846BDE8F0812DE9F04104460025EB
:104DC0001E469046C80301D5302700E020278804FE
:104DD00004D505E041463846B0476D1C641EF9D540
:104DE0002846BDE8F0810A68531C0B6010707047BC
:104DF00011B108B1884201D10020704782683AB1F0
:104E000052681AB111604A608068416001207047A1
:104E100081600020C1E90001F8E72DE9F0410600BA
:104E20000698984614460D4621D005B3FCB1A6421B
:104E30001DD018B1E06840F4007708E01946284614
:104E400000F0B2F8050012D0E06820F40077A089E5
:104E5000800504D4206A10B1D8F804108847E760B0
:104E6000214630462562BDE8F041FFF7C1BF002072
:104E7000BDE8F08108B500230093024BFFF7CDFF9A
:104E800008BD00000C000020F8B50C460546104691
:104E9000194600F013F8064600200090064B3246F3
:104EA00021462846FFF7B9FF0028304602D100F01E
:104EB00041F80020F8BD00000C00002070B5054648
:104EC0000E46124800F05EF804001CD00820E06096
:104ED000C4E906560E4A0F4B28463146FBF7B8FE8A
:104EE00002D86FF000400DE000220B4B28463146FF
:104EF000FBF796FE02D84FF0004003E0284631460B
:104F0000FBF75CFE6061204670BD00000C000020D5
:104F10000000C0FFFFFFDF410000E0C110B5044802
:104F200000F030F8002801D04021C16010BD000021
:104F30000C0000202DE9F04104460027104E1BE034
:104F4000A0892568C0050BD4A06820B1FFF7F2FF47
:104F5000A089C00504D4206910B171688847276111
:104F6000A089800504D4206A10B17168884727623F
:104F70007168204688472C46002CE1D1BDE8F081BD
:104F80000C00002010B5016828208847040002D0DA
:104F90002821FBF76FF9204610BD0000014A0121CE
:104FA00000F07CB90C00002070B50E4605000DD055
:104FB000FBF77DF9401C316804468847060005D0A0
:104FC00022462946FBF73DF9304670BD002070BDF2
:104FD0002DE9F0479846894623F0004621F0004726
:104FE0000546144633463946FBF732FE02D22846C0
:104FF000394601E0204631466FF03302FBF790FD61
:1050000006460F462246434628464946FBF7A1FC82
:1050100021F0004132463B46FBF702FE02D8012058
:10502000BDE8F0870020FBE72DE9F04104001CD02B
:105030002268D2B1636813B1A068984215D24FF0CC
:105040000046B14211D2A568491C6818834202D3B8
:105050005019BDE8F081216939B9B0F1804F06D30C
:10506000B04202D26FF0004702E00020F1E74700B3
:10507000236A00262BB1394610469847050012D006
:105080000CE0A1693846884705000CD0A268216869
:10509000521CFBF7D6F8E16920688847C4E900573D
:1050A000A0682844D5E7E1692068884766602660E3
:1050B000DBE7000013B54FF6FF7301226946024893
:1050C000FEF71BF900981CBD240400202DE9F041D7
:1050D0000B3020F00706104D19E02068B04215D3C0
:1050E000B0420AD9871B201DD4F80480FBF7A9F829
:1050F000A019C0E90078286004E060682860201DDD
:10510000FBF79FF8201D2660BDE8F081251D2C6867
:10511000002CE2D10020F7E764010020FDF70EF932
:10512000FEF7CEFDFEF7C0F9FEF788F9FEF730FA7C
:10513000FEF74AFAFEF730F90848FCF7B7FBFEF72E
:1051400055FB07A0FFF768F909A0FFF765F900F024
:1051500017F8FEF789F900F02FF8FEE78801002024
:1051600073797374656D206973206F6B210D0A006C
:1051700077616974203573204E42210D0A000000CA
:10518000EFF3058058B9EFF3108040B9094908687A
:10519000022801D030B109E0EFF3118030B16FF097
:1051A0000500704701200860002070474FF0FF3075
:1051B000704700003801002010B5EFF3058060B99A
:1051C000EFF3108048B90B490868022802D0012883
:1051D00006D00BE0EFF3118040B16FF0050010BD79
:1051E0000220086001F068F9002010BD4FF0FF3088
:1051F00010BD000038010020F0B585B04FEA010372
:105200004FF00004EFF305810394A1BBEFF310818D
:1052100089BB21490968022902D1EFF3118151BBF1
:1052200048B3802618218DF8104004AD42B31768AA
:1052300007B13D4697691FB139467F1E382F02D20C
:105240001779FF0702D0002005B0F0BD576907B1FC
:10525000BE08D2F808C0BCF1000F0DD0D4685C2C99
:1052600018D312693AB137B18DE806103246294693
:1052700001F07DFC03900DE0D7685FB912694AB96F
:1052800003AACDE90012B2B2294601F043FC01287D
:1052900000D003940398D7E738010020F0B589B017
:1052A0000E460746144624216846FAF7E3FF4FF4FA
:1052B00080752168284688470596CDE9000594E861
:1052C000070006AB83E80700009890B369463846AC
:1052D00000F02CFA002638B3684600F0FFFEA26802
:1052E0004AB102990098491C904705001CD02846F5
:1052F000009609B0F0BD02982168401C884705005F
:1053000012D0DDE90110401C814201D20A4601E0C1
:10531000029A521C28460099FAF793FF02982E54DD
:10532000616800988847E2E7009810B16168884793
:1053300000960020DDE72DE9F04185680C000FD0D4
:1053400001212046FFF770FE00280AD05B21017082
:10535000A068401CA060E068401C0026E06025E0DA
:105360000020BDE8F0812146284600F0DFF9002842
:10537000F7D0204600F0B2FE2868B0B1606908B1ED
:10538000022700E00127791C2046FFF74DFE002888
:10539000E7D02C2100F8011B616911B1202100F830
:1053A000011B0670A0683844A0602D68002DDAD17A
:1053B00002212046FFF738FE0028D2D05D2101707F
:1053C0004670E068401EE0600120CAE72DE9F04722
:1053D00006468AB0D6E90654884600271C2168464E
:1053E000FAF748FF0020CDE908004FF02E09B8F188
:1053F000000F42D00DB1012000E0002020432E49D3
:1054000020F00040081AC00F4FF0000A12D14800E7
:10541000B0EB440F00D16DB17069FBF79DFB2A46DC
:105420002346FBF7FDFB0AD124A168467269FFF70A
:1054300003F81FE022A16846FEF7FEFF1AE02A46A5
:10544000234621A16846FEF7F7FF064608AA20A1D9
:105450006846FAF73DFF012806D1DDE908012A4632
:105460002346FFF7B5FD30B92A46234619A1684601
:10547000FEF7E2FF06461A2E03D300200AB0BDE86D
:10548000F087711C4046FFF7CFFD0028F6D0694633
:105490002E2306E0CA5D4A4501D1C35500E0C2553E
:1054A0007F1CB742F6D300F807A0D8F8080081198E
:1054B0000120C8F80810E1E70000F07F2564000033
:1054C0006E756C6C0000000025312E3135670000D0
:1054D000256C670025312E31376700002DE9F04734
:1054E00085680C0003D0606920B1022603E000202B
:1054F000BDE8F0870126711C2046FFF795FD0028C6
:10550000F6D07B2100F8011BE168491CE16061696C
:105510000A2701B10770A0684FF00008304409263F
:10552000A06059E088B12046E168FFF77DFD0028C2
:10553000DED0002103E000BF00F8016B491CE268E7
:105540008A42F9D8A0681044A0602146286A00F079
:1055500065F80028CCD0204600F0C0FD606908B195
:10556000022000E00120814601462046FFF75CFD55
:105570000028BDD03A2100F8011B616901B1067015
:10558000A16801EB0900A0602146284600F0CEF892
:105590000028ADD0204600F0A1FD606900B10120D7
:1055A000296801B1012100EB010909F1010120463F
:1055B000FFF73AFD00289BD0296811B12C2100F893
:1055C000011B616909B100F8017B80F80080A168C6
:1055D00001EB0900A0602D686069002DA2D110B117
:1055E000E168491C00E002212046FFF71DFD00286C
:1055F00086D0616949B1002103E000BF00F8016B6A
:10560000491CE268521E8A42F8D87D21017080F858
:105610000180E068401EE060012069E72DE9F04765
:105620000A0005464FF0000601D01DB120E0002021
:10563000BDE8F08703211046FFF7F6FC0028F7D0FD
:1056400037A1FAF73BFE5AE00C2927D006DC0829DF
:1056500024D0092922D00A2906D11FE00D291DD006
:1056600022291BD05C2919D0202900D2761D401C8C
:1056700001780029E8D1401B8719F91C1046FFF773
:10568000D3FC041ED4D04FF022084FF0000984F858
:1056900000802EB1661C4FF05C0A28E0761CE6E71D
:1056A0003A462946601CFAF7CCFD23E01F2803D9AF
:1056B000222801D05C2830D106F801AB2A78504668
:1056C0000C2A23D006DC082A1ED0092A24D00A2A54
:1056D00006D11DE00D2A1DD0222A12D05C2A1CD032
:1056E00010A13046FEF7A8FE361D6D1C761C2878EA
:1056F0000028DBD1E01980F8018080F802900120B9
:1057000096E786F80080F0E7622006E0662004E075
:105710006E2002E0722000E074203070E5E70000A7
:1057200022220000752530347800000070B5040096
:105730000E4613D096B1207B102843D008DC0128F8
:1057400016D002281ED004280AD0082806D121E04D
:1057500020283CD040283FD0802820D0002070BD99
:1057600005213046FFF760FC0028F8D01DA106E0B7
:1057700006213046FFF758FC0028F0D01BA1FAF7AD
:105780009DFD1DE005213046FFF74EFC0028E6D0C8
:1057900018A1F4E72046BDE87040FFF717BE206966
:1057A0000028DCD0FAF783FD401C05460146304650
:1057B000FFF73AFC0028D2D02A462169FAF741FDCA
:1057C000012070BD2069BDE87040FFF727BF20466B
:1057D000BDE87040FFF7AFBD2046BDE87040FFF761
:1057E0007DBE00006E756C6C0000000066616C731D
:1057F0006500000074727565000000002DE9F0413D
:10580000134C0F46054666692068001D00F074FCC5
:10581000681C07D137B12168BDE8F0410D48091D6A
:1058200000F0BABC20683544B5424560216805D215
:10583000A068BDE8F041091D00F096BC6068091D34
:1058400000F092FC206B854200D22563BDE8F08118
:10585000E8000020300A00202DE9F041054600F064
:10586000A7FC2D4C2069401C206120682B4F10B1F3
:10587000E06930B32BE025602069012827D100269C
:1058800006EB860007EB800000F060FC761C382EEB
:10589000F6D3234800F05AFC2148143000F056FC9F
:1058A0001F48283000F052FC1D483C3000F04EFCF0
:1058B0001B48503000F04AFC194860601430A0606A
:1058C00005E02068E96AC06A884200D82560E06A7D
:1058D000401CE0626864E86AA169884200D9A0615E
:1058E00000EB800007EB8000291D00F055FC00F064
:1058F0007FFCE06900280CD02068E96AC06A884211
:1059000007D208494FF080500860BFF34F8FBFF3B4
:105910006F8FBDE8F0810000E800002080050020C6
:10592000E009002004ED00E038B500F041FC104C27
:10593000A068C8B90F4800F009FC0E48143000F008
:1059400005FC0C482060143060600A4B00202833AE
:10595000009003F1500210210A2000F07FFEA060A9
:1059600010B105A100F0C2FCBDE8384000F040BC19
:1059700024010020440A0020546D725100000000F0
:1059800030B4026C0B46002A0BD0C1681144C160D0
:105990004468A14201D30168C16030BC1846FAF7DF
:1059A00050BC30BC70472DE9F041856B174604466A
:1059B0000026026C82B1C7B1E068FAF742FCE168E8
:1059C000206C091AE1602268914202D26168081ACB
:1059D000E060022F16D017E02068A8B9606801F0D7
:1059E00069F90646002060600EE0A068FAF729FC1D
:1059F000216CA0680844A0606168884204D32068D4
:105A0000A06001E005B16D1E6D1CA5633046BDE8C8
:105A1000F08110B5044690F8590058B101280CD017
:105A200002280FD0502080F31188BFF34F8FBFF3AF
:105A30006F8FFEE7206B00F0EFFB2046BDE81040C3
:105A400000F0EABB10BD00000F4841F28831420768
:105A500005D0C01D0C4A20F00700821A891A0B4A93
:105A600000230144C2E900030839103A21F007017C
:105A700011604B600B600B1AC0E9001393604FF08C
:105A800000405360D0607047141200204C01002089
:105A9000144E154CA6F29C474FF08058DFF84C90FE
:105AA00012E000BF00F084FBF068C568281D00F01C
:105AB00023FB2069401E2061E068401EE06000F08A
:105AC00097FB2846FFF7A5FFE0680028EAD1386871
:105AD0000128F9D9C9F80080BFF34F8FBFF36F8F4A
